:020000040000FA
:10200000380E0020D5200000FB200000FD2000003D
:1020100000000000000000000000000000000000C0
:10202000000000000000000000000000FF20000091
:10203000000000000000000001210000032100005A
:1020400005210000052100000521000005210000F8
:1020500005210000E93800000521000005210000ED
:10206000413F00000521000005210000052100007E
:10207000F13F00001540000005210000052100008F
:102080000521000005210000653900000521000040
:1020900005210000052100000521000005210000A8
:1020A0000521000005210000052100000521000098
:1020B0000521000005210000052100000521000088
:1020C0000348854600F0F8FD00480047B96000006D
:1020D000380E00200C480D4901600D4901600D4982
:1020E00001600D4A0D4911600D4A0E491160002131
:1020F00001600D4880470D480047FEE7FEE7FEE718
:10210000FEE7FEE7FEE70000000100505900000076
:10211000160000008800000024000050A55A0000AE
:10212000800300501F000000413E0000C12000005D
:1021300030B50B46014600202022012409E00D465F
:10214000D5409D4205D31D469540491B25469540E7
:1021500040191546521E002DF1DC30BD70B500242B
:102160002546002801DA01244042002901DA012530
:102170004942FFF7DDFFAC4200D04042002C00D0C6
:10218000494270BD0549064A08685043054A80180F
:1021900008604008704701490860704788010020C6
:1021A0006D4EC6413930000003460B439B0703D0F8
:1021B00009E008C9121F08C0042AFAD203E00B780C
:1021C0000370401C491C521EF9D27047D2B201E084
:1021D0000270401C491EFBD270470022F6E710B582
:1021E00013460A4604461946FFF7F0FF204610BD85
:1021F00070B5002800D11068002514E00B4602E0FD
:10220000A64203D05B1C1C78002CF9D1E3B22B430F
:1022100007D0002C06D0002D04D000210170401CF6
:1022200004E00546401C0678002EE7D110602846E1
:1022300070BD014ADCE700008C01002030B5054686
:10224000002008E00A4602E0A34207D0521C13789F
:10225000002BF9D1401C2C5C002CF3D130BD70B5A3
:10226000064602F08FF8046805460A22002130462F
:1022700000F014FC2C6070BD70B5064602F082F8C8
:10228000046805460A220021304600F007FC2C6055
:1022900070BDF8B502464A40D40F42004B005208C8
:1022A0005B089A4202D20246084611464A0023D0F1
:1022B000C30D4A00DDB2120EAD1A202D35DA4902E7
:1022C0000126490AF6058A19002C00D05242202125
:1022D0004F1B1146B9402A411018C20D9A4221D015
:1022E000002C17D0012D08DCDA05801AD20F8019D6
:1022F000D207DBB200F012FCF8BDDA05801A012328
:1023000040001B06C01880185A428018CA0F10439C
:10231000490007E04908C2071143DA05801A80190D
:102320004008801800F0F2FBF8BD61000122511A4C
:10233000001BF7E70122D2075140AAE70122D2078A
:102340005040A6E7024670B54A40D30FDB07400075
:102350002DD04A002AD0010E140E000212020919D3
:10236000400A520A8418E50104465443000A120A3E
:102370002E045043A4194219200CC543AA18120C6C
:102380000125AD03521C521912047F39240400D0D8
:10239000521C104301D44000491EC2B20C06C009B1
:1023A0002018401C4008802A02D003E0002070BDA5
:1023B00040084000002900DA0020184370BD70B5C5
:1023C00002464A40D50F40004A00ED074008520837
:1023D000002814D0002A12D0C40DD30D41020120D0
:1023E000C0055202490A520AE41A091812187D342B
:1023F000914201D3641C00E04900002C01DA002066
:1024000070BD0023914201D3891A0343400849005B
:102410000028F7D100290AD0914202D10121C90731
:1024200005E0914201D2012101E00121C943E0050B
:10243000C018401900F06AFB70BD0000F0B50746F7
:102440000846584087B0C00F049048000E46590017
:1024500040084908BC1A884105D2384631461E4614
:1024600017460B4602465800400810434CD0300D2A
:10247000039040055900400D490D0590401A029007
:10248000402872DA18030121000B09050843019066
:1024900004980092002805D00199524200208841FA
:1024A00000920190029840210A1A0199009800F0C8
:1024B0006FFA05460C466B4607CB00F08AFAC01946
:1024C0007141039A0E0D0023D71756401A467A40E1
:1024D000164344D0049A002A2DD0029A012A039A66
:1024E00015DC1205C01A914101263605001C714108
:1024F000D20F059ED2070093019202962A462346E8
:1025000000F052FB07B0F0BD38463146FAE7160539
:10251000224A0F46B218C01AB74101210905001C12
:102520004F4100187F41114618187941E20F1043BE
:102530006D19644113E0E2076D0815436408C20792
:102540001443039A01261205C01A91413605001C56
:102550007141CE07400830434908C01851412A460E
:10256000234600F014FBCDE7FFE70498012240006A
:10257000C117121A00238B4104983146C417381A28
:10258000A141EEE730B40124E407634030BC55E7D5
:1025900030B40124E407614030BC4FE70000E0FFA5
:1025A000F0B51FB488B00B990998002448400999E8
:1025B000C00F490049080991C0070B9900904900D4
:1025C00049080B9109990898A64608431CD00B9915
:1025D0000A98084318D0099801244000420D480089
:1025E000410D099824050003000B204309900B9826
:1025F0000003000B20430B9050181C494018002288
:1026000001901446104605E0002001460DB0F0BDD3
:10261000032801DA034600E003239C46C11A0AAEF0
:102620000AE05F0008ADED5B4F00F75B7D430027DC
:10263000AA187C41491C5B1E6145F2DD410004ABD8
:102640005A522104120C0A43240C401C0828DFDBD8
:10265000019802900099704601910090059B049AA0
:102660000799069800F0A0FAD0E700000DFCFFFFE4
:10267000F0B50C465C4085B0E40FE40703944C00D1
:1026800000266408590094464908024602962243EF
:1026900021D062460A431ED06200570D4A000E0345
:1026A0002303550D012402462C492405781B1B0BDE
:1026B000360B401823432643614600901C46501AAF
:1026C000B44103D30098401C009002E09218009897
:1026D0005B41002803DA0020014605B0F0BD002070
:1026E000012109050746864611E064461D46141B74
:1026F000B54106D36546521BB341744607430C43AC
:10270000A646CD0740084908284392185B41054674
:102710000D43EAD11046184313D060461946504085
:102720007140084306D06046101AB34106D2012218
:10273000002306E000220123DB0702E00122D2434E
:102740005310009874460105381C6141029C039D9A
:102750000019694100F01BFABFE70000FD0300000B
:10276000C217C10F504010B54018CA079623002168
:1027700000F0D4F910BD10B500229623114600F0E8
:10278000CDF910BD0EB5C217C10F5040CA07401891
:102790000021054B0293019200910A460B4600F07E
:1027A00003FA03B000BD0000330400000EB5054974
:1027B0000291002100910A460B46019100F0F4F9C4
:1027C00003B000BD33040000C20F410040020123EA
:1027D000400ADB05D207090EC0187F2901DA002064
:1027E0007047962903DC9623591AC84001E09639B0
:1027F0008840002AF4D040427047000070B5CD0FE9
:102800004A0009030123090B1B0519430B4BED0774
:102810000024520D9A4201DA002070BD074B343378
:102820009A4203DC9A1A00F0C3F802E004495118F6
:1028300088402C43F1D0404270BD0000FF030000EF
:10284000CDFBFFFF4A0009030123090B1B051943B8
:10285000094B10B5520D9A4201DA002010BD064B0B
:1028600034339A4203DC9A1A00F0A2F810BD0349EF
:102870005118884010BD0000FF030000CDFBFFFF92
:10288000C20FD207400040080BD0C10D0723DB0167
:10289000C91840020905400A1143C2084007114304
:1028A000704700200146704710B5002904DB012461
:1028B000E40740428C412146002B04DB1C460123E7
:1028C000DB075242A341994200D1904210BD000063
:1028D000CB0FDB07490010B5490802460A4307D071
:1028E0000A0D07240903E401090B121B002A01DC6D
:1028F000002010BDC900440F0C43C100E018D205F0
:10290000801800F003F910BD0122D207002800DB77
:10291000101A002900DB511A814270470122D207A8
:10292000002800DB101A002900DB511A884270478A
:10293000F0B51FB40646002082B005464024019140
:1029400000901BE0019922460F46304600F030F817
:10295000049A059B801A994110D3104619462246C5
:1029600000F016F8361A8F41019722460120002107
:10297000009F00F00DF838184D4100902046641E6D
:102980000028DFDC019B00982946324607B0F0BDE5
:1029900010B5202A04DB0146203A9140002010BDEA
:1029A000914020239C1A0346E3401943904010BDF8
:1029B00010B5202A04DB0846203AD040002110BD83
:1029C0000B46D340D0402024A21A91400843194618
:1029D00010BD10B5202A06DBCB170846203A10415F
:1029E000C1170B4306E00B461341D0402024A21A26
:1029F00091400843194610BD0FB400B589B00CA929
:102A000000910B990023CB60204B214A069307923B
:102A1000042201921F4A02921F4A089202466B4604
:102A2000002000F0E4F909B008BC04B0184770B504
:102A300086B006460020C0430190002015460C4693
:102A40000091029104903246694604A8FFF7D4FF32
:102A5000034604982118002D05D0002801D00A460D
:102A600000E022462A6000280DD0002B02DD0098ED
:102A7000884208D0081B01900094324669460294AF
:102A800004A8FFF7B9FF06B070BD00004530000094
:102A900065300000FFFFFF7FE52C0000F7B5009CCC
:102AA0000F4600262578641C002D05D000F016F98D
:102AB0000068405DC007F5D12B2D02D02D2D18D018
:102AC000641E39462046029A00F0DEFA002F04D038
:102AD0003968A14201D100993960710502240029A9
:102AE0000BDA4042002803DD01F04CFC0460A00733
:102AF000FEBD012080020643E3E70028F8DA01F07A
:102B000041FC04600048FEBDFFFFFF7F002904DA9E
:102B1000401C490001D140084000704770B40024B7
:102B2000050C05D11024000402D1002921D0112464
:102B3000050E01D100020834050F01D10001241D4A
:102B4000850F01D18000A41C002801DB4000641C1B
:102B5000002908D020252E1B0D46F540A14000D0AD
:102B600001212943084301061B1B000ADB1D02D576
:102B7000002070BC7047DB05181880180029F8DAAF
:102B8000401C4900F5D170BC40084000704710B5AA
:102B9000002B08DA0024401C614192185B411A4363
:102BA00001D14008400010BDF0B51FB482B0054609
:102BB0000C0003D0084601F0A9FB02E001F0A6FBDF
:102BC00020300246009021462846FFF7E1FE049B94
:102BD000059A04460F4618431143084314D018467B
:102BE00010431BD0009840210A1A18460599FFF798
:102BF000DFFE05460E46009A05990498FFF7C8FEC9
:102C0000084305D0012004E02046394607B0F0BD56
:102C10000020C11705430E432C43374300990E98FB
:102C20006305401A7905E40A00220C43FD0A0A30C4
:102C300002D500200146E9E70105101969410C9C05
:102C40000D9D00196941FFF7A2FFDFE770B54B004A
:102C50005B0803430BD04B005C0D002633466542F6
:102C6000B341D417AD1AA34102DB0020014670BD69
:102C700012053018514170BD4A0009030123090BA8
:102C80001B0519430A4B10B5520D9A4202DA002077
:102C9000014610BD064B34339A4203DC9A1AFFF703
:102CA00087FE10BD034BD218FFF772FE10BD000067
:102CB000FF030000CDFBFFFF064C0125064E05E09B
:102CC000E36807CC2B430C3C98471034B442F7D34D
:102CD000FFF7FAF908AA000028AA00000048704788
:102CE00004AA000010B50446FFF7F8FF0068005D75
:102CF000C007C00F10BD0000FFB5087885B01546AD
:102D0000FF2805D0491C2D2804D00022002407E00C
:102D100000240BE00122F9E70A235C430419491C53
:102D20000878FF28F8D1002A00D0644200200190E2
:102D30002A7801462D2A01D02B2A04D16D1C2D2A78
:102D40000DD00022019200262F78FF2F09D00A22F1
:102D500000236D1C00F03CFA38187141F4E70122A1
:102D6000F0E7089AA218039202460A430DD0002405
:102D7000B24AB14D2646009200F076FA04900398CC
:102D80000291002807DA47421AE0002105980A4616
:102D900006C009B0F0BD074612E0F80707D022468A
:102DA0002B4630460099FFF7FBFB06460091224672
:102DB0002B4610461946FFF7F3FB04460D467F10DD
:102DC000002FEAD10398009B00280299049832460C
:102DD00002DAFFF74DFC01E0FFF7E2FB019A002A5F
:102DE00002D00122D2075140059A03C2D1E7FFB5B4
:102DF00091B0002009900025ED432E209E685C686C
:102E00001F460190B9696D1C129888470090396A75
:102E100088470028F6D10098401C0AD00D20C00138
:102E20008443002E12DD00982B2809D02D280DD1C7
:102E300003E00020C04315B0F0BD01208002044330
:102E4000B9696D1C12988847761E009003A9600529
:102E500001D52D2000E02B206A461073491C0CA8D8
:102E60000F9102900AE0B9696D1C12988847009092
:102E70000120400204431398761E0560002E02DDF7
:102E800000983028EFD001990098884246D18020E0
:102E9000044308E00998401E0990012040020443C1
:102EA0001399681C0860B9696D1C761E12988847D2
:102EB00000903028EED031E00199884205D12006FB
:102EC00003D480200443761E1EE0009801F0A6FB88
:102ED000002826D001204002044307A90F9803319F
:102EE000761E88420BD200980F99303808700F98E0
:102EF000401C0F90200607D50998401E03E02006CD
:102F000002D40998401C0990A00502D51399681CA9
:102F10000860B9696D1C129888470090002ECBDCC0
:102F200059E0002E57DD0098652801D0452852D180
:102F3000A00550D5032000028443B9696D1C761E9C
:102F4000129888470090002E0CDD2B2804D02D28E5
:102F500008D1FF2001300443B9696D1C12988847DD
:102F6000761E0090E00501D52D2100E02B2102986E
:102F700001700298401C0290019025E0012040025F
:102F800004430EA902980131761E88420ED20098A1
:102F9000029930380006000E087003D1029901989A
:102FA00081420AD90298401C029006E0E00501D552
:102FB000234801E0224840420990B9696D1C1298EB
:102FC0008847009013980560002E04DD009801F0FA
:102FD00025FB0028D2D1F969129888470F99FF2064
:102FE0000870029903AA087000200A900B900CA99F
:102FF0000AA8099BFFF780FEA00502D40120C04368
:1030000019E72420044209D0E00713D138680B9A4D
:103010000A99031D3B60006806C00BE00B990A98F3
:10302000FFF756FC0146E00704D13868021D3A60FC
:10303000006801602846FEE6000024400000F03FE2
:10304000F1D8FFFF4268002A08D001680B78491CBC
:10305000002B03D0521E06C0184670470121C160E4
:10306000881E70474268002A0BD0C3680168002B95
:1030700007D183688B4204D0491E521C06C0002031
:1030800070470020C0437047F7B582B0029C00270C
:103090002078641C15460197302802D0002D15D0E9
:1030A00015E020780127641C782804D0582802D025
:1030B000002D09D00BE0002D01D0102D07D10027E5
:1030C00010252078641C02E0082500E00A2500266F
:1030D000009610E00099012769430818020C294660
:1030E00080B2714300908E183804864201D30120CB
:1030F00001902078641C294600F0A7F80028E9DA3E
:103100000398002805D0002F01D0641E00E0029C27
:1031100004600198002806D001F034F90221016012
:10312000C81E05B0F0BD009930040843F9E7FEB5AC
:1031300000231A461B1A8A4103DB0020014603B014
:10314000F0BD4A000D0301212D0B0905520D0D4361
:10315000D10702D100186D41521E5110FF31FF31CD
:103160000131002704463E46384600970191024649
:10317000012100200905FFF71BFCC3197141F81854
:10318000324684468E464A4161462846611A90413D
:1031900004D36046241A954176461F4624190098A8
:1031A0006D41401C00903428E1DDF9193046704132
:1031B000091BA84103D20022D243134601E000229A
:1031C000134601980105381C7141FFF7E0FCB6E792
:1031D000F0B51FB486B000200090019002900698D0
:1031E000069980B204900798090C02040014114358
:1031F00007900027089D099806913E463C4603909B
:103200000398A9B20204000C039004982D0C1543F6
:10321000484300212246FFF7BBFBC7197141103418
:103220000E46402CECDB3846029AFFF7B1FB009AC1
:10323000019B801800905941029801911030029032
:103240004028CCDB00980BB0F0BD3A2800D23038D3
:10325000202302469A43412A01D310463738884238
:1032600001D30020C04370470EB5054A02920022E8
:10327000009213460192FFF797FC03B000BD0000D7
:103280003304000070B58C180578401C6B075B0F89
:1032900001D10378401C2A1106D10278401C03E0BA
:1032A00006780E70401C491C5B1EF9D12B0705D413
:1032B0000023521E0DD40B70491CFAE70378401C02
:1032C000CB1A921C03E01D780D70491C5B1C521E2A
:1032D000F9D5A142D8D3002070BD0000C10F8900EC
:1032E000064A89188968C306DB0E01229A401143F9
:1032F000C20F9200014BD21891607047000200503B
:10330000F3B583B00C460398002809D13D48006A04
:103310000121C90488433B4908623B48029008E008
:103320003848006A0121C904084336490862374811
:1033300002903748844204D84010844201D90027C3
:1033400022E03448844205D84010844202D9012743
:10335000640019E03048844205D84010844202D30A
:103360000327A40010E00398002803D12B48254927
:10337000086202E02A4823490862042000F0D6F9D6
:1033800000F0E2F805B0F0BD26492046FEF7D0FE79
:10339000064624490298FEF7CBFE05460EE0E807F4
:1033A000C00F002807D1F007C00F002803D1022D5D
:1033B00001D0022E00D102E06D087608EFE700BFD1
:1033C000B803A91E49020843B11E084301900D48E5
:1033D000006A010C0904019801430A480162006A6D
:1033E00005210904884307490862042000F09EF97A
:1033F0007A1C6A431146029A72431046FEF798FE01
:10340000C0E7000000020050001BB700008051011F
:1034100000C2EB0B00E1F50580F0FA022EC20000BD
:103420006FD6000040420F00024909680143014A7B
:10343000116070470002005010B500F0CFFC014849
:10344000006810BD00000020FEB5002002901AA008
:10345000006800901948046A00132040002801D039
:103460000020FEBD0120C0042040002801D0144DE2
:1034700000E0144D012040042040002801D02846DF
:10348000EFE7032080032040800B69460A5C01922D
:10349000E005C00D861C1F2040022040400A871C0A
:1034A000019A7A431146AA0872431046FEF740FE7D
:1034B000800002900298D4E701020204000200504A
:1034C00000805101001BB700FEB5002002901AA039
:1034D000006800901948046A00132040002801D0B9
:1034E0000020FEBD0120C0042040002801D0144D62
:1034F00000E0144D012040042040002801D028465F
:10350000EFE7032080032040800B69460A5C0192AC
:10351000E005C00D861C1F2040022040400A871C89
:10352000019A7A431146AA0872431046FEF700FE3C
:10353000800002900298D4E70102020400020050C9
:1035400000805101001BB700FEB5002002901AA0B8
:10355000006800901948046A00132040002801D038
:103560000020FEBD0120C0042040002801D0144DE1
:1035700000E0144D012040042040002801D02846DE
:10358000EFE7032080032040800B69460A5C01922C
:10359000E005C00D861C1F2040022040400A871C09
:1035A000019A7A431146AA0872431046FEF7C0FDFD
:1035B000800002900298D4E7010202040002005049
:1035C00000805101001BB700FEB5002002901AA038
:1035D000006800901948046A00132040002801D0B8
:1035E0000020FEBD0120C0042040002801D0144D61
:1035F00000E0144D012040042040002801D028465E
:10360000EFE7032080032040800B69460A5C0192AB
:10361000E005C00D861C1F2040022040400A871C88
:10362000019A7A431146AA0872431046FEF780FDBC
:10363000800002900298D4E70102020400020050C8
:1036400000805101001BB70010B5044610488442A9
:1036500001D9044603E00F48844200D204460E48D4
:103660000068C007C00F002805D021460020FFF7E2
:1036700047FE044605E021460120C004FFF740FE56
:1036800004460021022000F009F8204610BD000089
:1036900080F0FA0240787D010002005070B50446C7
:1036A0000D4608480069C008C0002043054908616C
:1036B00008468069000900012843886100F08EFBFC
:1036C00070BD000000020050F0B50B460021002440
:1036D0000025C600360F002E0FD04600B60FB600EC
:1036E000114FF4192168C600370FC601F60EB74016
:1036F0000E46BE431E43314621608603360E002E21
:1037000010D00603B60FB600074F0837F519296821
:103710008603360EF6438705FF0EBE400E40164365
:1037200031462960F0BD0000100200500146074AF2
:1037300005E01046521E002801DC002070470448B6
:10374000C06808408842F4D10120F7E790D0030018
:10375000000200500348006840084000014908602A
:103760007047000000C000500348006820218843D3
:10377000014908607047000000C00050034800681D
:1037800010210843014908607047000000C0005044
:103790000348006820210843014908607047000081
:1037A00000C00050014622200D4AD0601046416002
:1037B00001201061BFF36F8F00BF09480069002826
:1037C000FBD10748006840221040002805D0402067
:1037D000034A10600020C04370470020FCE700004F
:1037E00000C00050014622200D4AD06010464160C2
:1037F00001201061BFF36F8F00BF094800690028E6
:10380000FBD10748006840221040002805D0402026
:10381000034A10600020C04370470020FCE700000E
:1038200000C00050034800680121084301490860B6
:103830007047000000C0005001460020074AD060D9
:103840001046416001201061BFF36F8F00BF034835
:1038500000690028FBD101488068704700C0005013
:1038600070B505460E46002408E0A10003221205AB
:103870008818FFF7E1FFA1006850641CB442F4D33C
:10388000002070BD70B505460E460020044625E0B8
:10389000A20003231B05D018A200A9582122114B16
:1038A000DA601A465060916001221A61BFF36F8F8F
:1038B00000BF00BF0B4A1269002AFBD100BFA10064
:1038C000032212058818FFF7B7FFA1006958884244
:1038D00002D00020C04370BD601C0446B442D7D360
:1038E0000020F8E700C000500D48006A0821084099
:1038F000002803D008200A4908620FE00848006A3F
:103900000749086206484030006A054940310862AC
:1039100003488030006A0249803108627047000025
:103920008040005070B5034600200FE00124844021
:103930000C40002C09D01C6846000325B540AC4360
:1039400046001546B5402C431C60401C0828EDD3AA
:1039500070BD416901221143416170470146C86849
:103960007047000010B50D48FFF7F8FF04460B48FC
:103970004069C007C00F012148404840002803D0DB
:103980000648FFF7E6FF07E005480068002803D077
:10399000204603490968884710BD00000000024026
:1039A000BC000020C206D20E01219140014A1160E4
:1039B0007047000000E100E030B50146F0240C4003
:1039C00022110B071B0F5401024D64199D00601951
:1039D00030BD00000042005030B583680D24A34381
:1039E0000C46144308252C432343836030BD00005C
:1039F000FFB581B004460A9F00260498202801D113
:103A0000002004900498C0000299084303990843D9
:103A10002060052000070068000F0007002808D07C
:103A2000052000070068000F0007012109078842F0
:103A300049D1FFF701FD0646029800283FD1A0605A
:103A4000B7420FD1052000070068000F00070121D1
:103A50000907884206D1E06B01210843E063304644
:103A600005B0F0BDB74205D36068000C000460608B
:103A70007008F5E7002F07D16068000C0004564974
:103A800040186060700CEBE779000A227243104620
:103A9000FEF74EFB401D0A210090FEF749FB451E34
:103AA0004D48854200D905466068000C0004284353
:103AB0006060681C41003046FEF73AFBD0E71020FA
:103AC000A0603046CCE7E06B0121C9070843E06302
:103AD0000298002867D1A060404884420DD1404838
:103AE000406910210840102803D1FFF7A5FC0646C5
:103AF00010E0FFF769FD06460CE0394840692021D7
:103B00000840202803D1FFF797FC064602E0FFF7A4
:103B10005BFD0646B74203D30020606030469FE756
:103B2000002F0AD1E06B40004008E0636068000CA1
:103B30000004FF306060700A92E70A217143084672
:103B40003946FEF7F5FA401D0A210090FEF7F0FA1B
:103B5000451EFF2D1DD9E06B40004008E063790051
:103B60000A2272431046FEF7E3FA401D0A21009034
:103B7000FEF7DEFA451EFF2D00D9FF256068000C18
:103B8000000428436060681C41003046FEF7D0FA0C
:103B900066E76068000C000428436060691C3046DA
:103BA000FEF7C6FA5CE71020A0600C48844207D1FB
:103BB0000B4840691021884310300949486106E0EC
:103BC000074840692021884320300549486100208A
:103BD0006060304644E70000FFFF00000000034043
:103BE0000002005010B50420FFF71EFC1020FFF764
:103BF0009DFD0120FFF718FC0120FFF797FD002134
:103C00000846FFF74BFD3248FFF71EFD3148FFF72E
:103C100065FB3048401CFFF761FB2F48FFF75EFB58
:103C2000002211462B48FFF74FFD0022114629487C
:103C3000401CFFF749FD002220212848FFF744FDE2
:103C4000002211462448FFF73FFD2448FFF746FBBA
:103C500000F0C4F805200007C06B21490840052189
:103C60000907C8630846C06B0321084305210907FB
:103C7000C8630846006B1B49084005210907086313
:103C80000846006B1649C943084305210907086324
:103C90000846006B0F210903084305210907086343
:103CA000114840680F21090408430F494860052066
:103CB0000007406B0D490840052109074863084685
:103CC000406B0F21084305210907486310BD000020
:103CD00080F0FA02103D80270200802E0D00502255
:103CE000FCFCFFFFFCFCFFFC40400050F0F0FFFF3D
:103CF0000520000780680121084305210907886025
:103D00007047010E05221207891889680122824036
:103D10001143020E05231B07D2189160010E1A46AB
:103D200089188A68012181408A43010EC9188A6076
:103D30007047000006E05920054908601620086019
:103D400088200860024800680128F4D1704700000C
:103D50000001005006E0592005490860162008605F
:103D600088200860024800680128F4D170470000EC
:103D70000001005070B5044612480078012807D1B0
:103D8000234660221048017810A006F009FC18E0D4
:103D9000F02006F0ADFC0C48007806F0A9FC1520D8
:103DA00006F0A6FC204606F0A3FC07480078153074
:103DB000001945066D0E284606F09AFCF72006F01D
:103DC00097FC70BD5F0000205C0000204725642048
:103DD000542564204525640D0A00000070B5124882
:103DE000006945076D0FFFF72FFB10490860022D92
:103DF00003D0A8000E490C5801E00C4804680A489A
:103E000080690007000F461C31462046FEF790F9F6
:103E1000084908600849074800684A108018FEF7FA
:103E200087F90649086070BD0002005008000020B4
:103E300010A800000000002040420F0004000020F5
:103E40007047000030B589B005462022194901A805
:103E5000FEF7AAF91848854206D11848406907219B
:103E600009020840040A1AE013482030854206D1AE
:103E700012484069072109030840040B0FE010486D
:103E8000854206D10D484069072109040840040C09
:103E900005E00A484069072109050840040D022C85
:103EA00003D10848006809B030BDA00001A9085836
:103EB000F9E70000CCA8000000000140000200501B
:103EC0000000114000000020FEB505460F461646D2
:103ED0002846FFF7B7FF04460020019000906008D5
:103EE000B04202D2022001901BE0012080068442F1
:103EF00003D307200090E4080EE00120400684422E
:103F000003D303200090A40806E0012000068442A9
:103F100002D301200090640831462046FEF708F9DC
:103F2000019000983843286001986860009A521CFC
:103F30000198504301462046FEF7FAF8FEBD000006
:103F400000BF15488068C007C00F002823D000BFFD
:103F500001201149886000BF10480068401C0F49CB
:103F600008600F480068401C0D490860142805D3FC
:103F700001200C4908700020094908600A480068BF
:103F8000401C09490860322805D301200749087000
:103F90000020054908607047000001401000002023
:103FA000C8000020C1000020C4000020C000002084
:103FB00010B5044622460121C9060C48FFF784FFCC
:103FC00000BF0A4800680121490708430749086003
:103FD00000BF00BF08460068890308430349086022
:103FE00000BF0820FFF7DEFC10BD0000000001400C
:103FF00010B500F0F1F810BD10B504460348FFF706
:1040000080FE2146024800F02FF810BD1000000489
:104010000000054010B500F023F910BD10B50446AE
:104020000348FFF76EFE2146024800F01DF810BD60
:10403000110000040000154010B509484068012136
:104040000843074948600C20FFF7ACFC054840686E
:1040500001210843034948600D20FFF7A3FC10BD70
:104060000000054000001540F0B587B004460D463D
:10407000274801460EC9C06803AE0EC60690002050
:10408000029024484069032109060840060E214891
:1040900080690F2109020840070A002020630320DD
:1040A000E060A0681C490840A060012E04D1FFF721
:1040B0000BFAB10003AA5050002D26D0B10003AA7C
:1040C0005058791CFEF734F86908401829460190C9
:1040D000FEF72EF8801E02901049029888420FD9F0
:1040E000B10003AA5058791CFEF722F8E9004018E5
:1040F00029460190FEF71CF80009801E606204E06A
:104100000321090702980843606207B0F0BD000070
:104110009CA80000000200500FFFF0FFFFFF00000E
:10412000FFB587B004460D461746284801460EC91C
:10413000C06802AE0EC60590002001902448406978
:10414000032109060840060E214880690F21090253
:104150000840000A0690012E04D1FFF7B5F9B1001E
:1041600002AA5050002D28D0B10002AA505806993A
:10417000491CFDF7DDFF6908401829460090FDF74E
:10418000D7FF801E019013490198884210D9B100D1
:1041900002AA50580699491CFDF7CAFFE9004018C9
:1041A00029460090FDF7C4FF0009801E606204E00C
:1041B0000321090701980843606238460A990843B9
:1041C00010990843E0600BB0F0BD0000ACA80000FF
:1041D00000020050FFFF000008B5FF2100911B49BD
:1041E000C8698915014000292ED027E017490968C0
:1041F000C9B20091164900228A5E802A17DA694600
:104200000978144A144B1B88D154134909887F2913
:1042100001D1002102E010490988491C0E4A118091
:104220000B490988491C09B2094A118006E000219E
:10423000074A1180084A1180084A11800349C96958
:10424000C907C90F0029D1D108BD000000000540F1
:1042500056000020540200205A0000205800002080
:1042600008B5FF2100911B49C86989150140002943
:104270002ED027E017490968C9B2009116490022DB
:104280008A5E802A17DA69460978144A144B1B881B
:10429000D154134909887F2901D1002102E0104936
:1042A0000988491C0E4A11800B490988491C09B22A
:1042B000094A118006E00021074A1180084A11804E
:1042C000084A11800349C969C907C90F0029D1D11A
:1042D00008BD0000000015404A000020D402002064
:1042E000500000204E00002037B514460846064B0B
:1042F0006A46214600F09AF904466946002000F01B
:1043000031FD20463EBD0000654D00002021020C1D
:1043100001D010211046020A01D0104608390209C6
:1043200001D01046091F820801D01046891E42089C
:1043300001D0881E7047081A704730B47446641E56
:104340002578641CAB4204D3635D5B00E31830BC8A
:1043500018471D46F8E700004900CA020243100052
:1043600000D004204A0D01D001221043044A490D17
:10437000914201D102210843012800D10520704754
:10438000FF0700000048704790010020F8B5044680
:104390004F1EC8000838211815461E46086849688F
:1043A0003A4606239A4310D02A463346FEF7F8F8D9
:1043B0003A46D200083AA3181A687F1E5B68FEF7D7
:1043C0003DF806223B469343EED1022F23D0042F23
:1043D00011D0062F2FD12A463346FEF7E1F8E36AC3
:1043E000A26AFEF72BF82A463346FEF7D9F8636A2D
:1043F000226AFEF723F82A463346FEF7D1F8E3692E
:10440000A269FEF71BF82A463346FEF7C9F863692E
:104410002269FEF713F82A463346FEF7C1F8E3682F
:10442000A268FEF70BF82A463346FEF7B9F8636830
:104430002268FEF703F8F8BD002210B513461046B7
:104440000149FEF715F910BD0000F03F10B5FDF76A
:10445000F5FF10BD002210B5134610461146FEF7B9
:1044600007F910BD10B50721024A00200907FEF721
:10447000EDFB10BD01030000034A10B50020110739
:10448000FEF7E4FB10BD000001FDFFFF01480068DE
:10449000704700009001002002E008C8121F08C108
:1044A000002AFAD170477047002001E001C1121FB5
:1044B000002AFBD1704700000149086070470000E6
:1044C00090010020F0B51FB484B007980699020D42
:1044D000014314D04A484B491018484305140F981B
:1044E00001280E981CD0281A401C0024464E47492B
:1044F000009401910290002814DA474227E00F98B7
:10450000012443A3012808D0002104980F9A846055
:104510000360C260416009B0F0BD0E98C143F4E78A
:104520004042E2E7074612E0F80707D0224633464A
:1045300001990098FEF734F8019100902246334625
:1045400010461946FEF72CF804460E467F10002F41
:10455000EAD10298019B0028009A0799069802DA8E
:10456000FEF71EF801E0FEF783F804460E4600222F
:10457000284BFEF799F903D80020C043014607E015
:104580000022254B20463146FDF758FFFEF774FB0D
:10459000102409E0002C0ADB0A220023FEF7C8F9E8
:1045A000059B30321A55641E02460A43F2D111228D
:1045B000641C059B121B1C190F9B012B03D00123AC
:1045C00008430ED10AE0084304D011200E900020C9
:1045D0000F9084E70E98151A6D1E0BE00E9882421C
:1045E00002DD00236D1C03E0824201DA00236D1E10
:1045F000002BEED004980F998260C16030C08AE72A
:1046000001FCFFFF104D0000000024400000F03FBF
:10461000300000000000F0430000E03F30380A287E
:1046200001D201207047002070470000FFB597B00D
:104630000646002518E2252877D100242746FD49A3
:10464000049400E00443761C32780120203A904024
:104650000842F7D130782A280ED00222307801465D
:104660003039092916D804990A235943303940189A
:104670001443761C0490F1E7189802C8049118902E
:10468000002904DA01204003044348420490022038
:104690000443761C30782E2814D10420044370780B
:1046A000761C2A2809D11898761C80C8189009E031
:1046B0000A214F43303FC719761C30780146303904
:1046C0000929F5D930786C2810D006DC4C281AD08E
:1046D00068280ED06A2817D104E0742813D07A28ED
:1046E00012D110E00120400504430CE0012109052E
:1046F00001E0032109050C437178814203D10120B7
:1047000000052418761C761C3078119066280BD092
:1047100013DC58287DD009DC00287BD04528F6D052
:104720004628F4D047281AD1A5E118E0632835D0EF
:10473000642870D0652812D19DE170286CD008DC07
:104740006728F1D069287BD06E280DD06F2806D15C
:10475000BAE073282ED0752871D0782859D01A9ACB
:10476000199990476D1C7EE16002400F022809D024
:1047700003280DD00428189801680DD00D60001D85
:10478000189070E11898EA1701680D604A60F6E722
:10479000189801680D80F2E70D70F0E718986A46E6
:1047A00001781172001D18900020507202A800902C
:1047B000012005E0189802C8189000200091C0431D
:1047C00061070DD5002101E00199491C0191B94211
:1047D00012DA8142F8DB009A515C0029F4D10BE037
:1047E000002101E00199491C01918142FADB019A03
:1047F0000099895C0029F5D1019904981A9B471A00
:1048000021463846199A00F097FA0199401945183F
:104810000BE04FE02CE113E04EE0009800990078A7
:10482000491C00911A9A199990470198401E0190CD
:10483000401CF2D1214638461A9B199A10E137E004
:104840000A200021009001916002410F022907D047
:10485000189A01CA1892C2179446032908D00AE090
:104860001898C01DC108C90005C91891944607E0F1
:1048700000B2C2179446042902D140B2C1178C4637
:1048800000226146944506DA0A46002140429141E1
:104890008C462D2102E0210504D52B216A46117397
:1048A000012103E0E10701D02021F7E7029155E063
:1048B0000A200AE0102008E01020009000210420C7
:1048C00004430191082703E0082000210191009092
:1048D0006002410F022907D0189A01CA18920022DB
:1048E0009446032908D008E01898C01DC108C900E3
:1048F00005C91891944603E080B2042900D1C0B2E2
:1049000000210291210729D51199702906D0009A1A
:104910001021019B4A401A4305D00EE040216A460F
:104920001173012108E06146014306D030216A4637
:1049300011731199517302210291009A0821019B70
:104940004A401A430AD16146014301D1610705D5A6
:1049500030216A46117301217F1E02911199582955
:1049600004D035A10E910DA90D910DE037A1F9E705
:104970006146019B009AFDF7DBFF0E9B8C469B5C1A
:104980000D9A521E0D92137061460143F0D10D989D
:1049900005A9081A20300190600703D50120000402
:1049A000844300E001270198874201DD381A00E0C6
:1049B0000020019900904118029809180498401AA3
:1049C0000490E00306D421461A9B199A049800F03B
:1049D000B3F94519002706E003A81A9AC05D199992
:1049E00090476D1C7F1C02988742F5DBE0030CD5D5
:1049F00021461A9B199A049800F09EF9451904E083
:104A00001A9A3020199990476D1C0099481E009001
:104A10000029F5DC08E00D980D990078491C0D91EE
:104A20001A9A199990476D1C0199481E0190002906
:104A3000F1DC63E109280100303132333435363797
:104A400038396162636465660000000030313233DA
:104A5000343536373839414243444546000000007A
:104A600000F05AF94519761C3078002800D0E2E5AC
:104A700028461BB0F0BD600700D406271898C01D5B
:104A8000C108C90048680A680831C30FDB071891DC
:104A9000190001D09CA108E0210501D59BA104E0EB
:104AA000E10701D09AA100E09AA1430011985B08A8
:104AB000109165280CD006DC452809D046281DD069
:104AC000472841D141E0662818D067283CD13CE016
:104AD0000021112F01DB112000E0781C01910090D2
:104AE00008A911A8FFF7EEFC139905910021119A6E
:104AF00015927F1C12980197009150E00120C00789
:104B000003900120019008A9009711A8FFF7DAFC93
:104B1000139A149905920022119B009212981593F2
:104B2000059A0192002901D0104602E0791C401834
:104B30000190381A01D5019804E04042401E0090CF
:104B4000781C0190C01B029043E0012F00DA01277E
:104B50000021112F01DD112000E038460191009065
:104B600008A911A8FFF7AEFC13990591119A00212D
:104B7000129815920091019721070CD40599B9421A
:104B800001DB019900E00191012904DD159A491E1C
:104B9000515C302906D0B84201DA011D05DA012145
:104BA000029115E00199491EEDE7002805DC009906
:104BB000411800910199091A03E0019A411C9142A0
:104BC00000DD01910099401A401C02900120C007AD
:104BD0000390200706D402990198814202DB00204D
:104BE000C043029000206946C87707AF01210398AF
:104BF0000337C907884224D0022011902B2012903D
:104C0000039800280CDA404203902D20129007E010
:104C10000A210398FDF78CFA30317F1E039039701A
:104C20001199481E11900029F2DC03980028EFD159
:104C3000791E129808703078202108404530BF1E38
:104C4000387006A8C01BC01D03901098007800287B
:104C500000D00120019941180298C0170918039843
:104C600009180498401A401E0490E00306D4214617
:104C70001A9B199A049800F05FF84519109800786B
:104C8000002803D01A9A199990476D1CE00324D587
:104C900021461A9B199A049800F04EF845191CE019
:104CA0000098002807DB00990598884203DD1598D5
:104CB000405C199901E0199930201A9A90470098A0
:104CC0006D1C401C00900298401E0290002804D1E8
:104CD0001A9A2E20199990476D1C0199481E01902F
:104CE0000029DDDC05E038781A9A7F1C1999904775
:104CF0006D1C0399481E03900029F4DC21461A9B81
:104D0000199A0498ACE600002D0000002B0000006A
:104D10002000000000000000F8B5044600251E46F3
:104D20001746880404D405E039462020B0476D1C9E
:104D3000641EF9D52846F8BDFFB50446002581B0AC
:104D40001E46C80301D5302700E02027880404D57B
:104D500005E038460399B0476D1C641EF9D5284616
:104D600005B0F0BD0A68531C0B601070704700005E
:104D700000B50246104601F08FF9002801D1401E0F
:104D800000BD474840690C218843454948610846B1
:104D90008069886108468068C90408434049886082
:104DA000012040490862104610380300FFF7C5FA99
:104DB000060454142434445405200007406B012198
:104DC00008430521090748633648406A000A000283
:104DD000401C3449486240E005200007406B042134
:104DE00008430521090748632E48406A000A00026B
:104DF000001D2C49486230E005200007406B082167
:104E000008430521090748632648406A000A000252
:104E100008302449486220E005200007406B10213B
:104E200008430521090748631E48406A000A00023A
:104E300010301C49486210E005200007406B20211B
:104E400008430521090748631648406A000A000222
:104E500020301449486200E000BF00BF0120114922
:104E600008630846006A0121C90208430D49086227
:104E700000BF0C48006BC007C00F0028F9D00948DC
:104E8000006A0121C90288430649086201200863BB
:104E9000104610388000401800680005000D6FE7CC
:104EA0000002005000000E4010B504461C488078F7
:104EB000401C1C490870F02005F01AFC19480078C5
:104EC00005F016FC162005F013FC1748007805F0D5
:104ED0000FFC14480078163013490978401843062F
:104EE0005B0E184605F004FCF72005F001FCF020ED
:104EF00005F02AFCFF2005F027FC162005F024FC15
:104F00000848007805F020FC064800781530430674
:104F10005B0E184605F018FCF72005F015FC10BDD7
:104F2000540300205D0000205E0000201CB50446F4
:104F3000274881780191684600790F304106490E73
:104F40002348C078814203D01320FEF713FF1CBD15
:104F500068460079401C1F490870F02005F0C8FB26
:104F60001C48007805F0C4FB102005F0C1FB1A486E
:104F7000007805F0BDFB1748007810301649097815
:104F800040184106490E00916846007805F0B0FBD4
:104F9000F72005F0ADFBF02005F0D6FBFF2005F073
:104FA000D3FB102005F0D0FB0A48007805F0CCFBBD
:104FB000084800780F304106490E00916846007895
:104FC00005F0C2FBF72005F0BFFB00BFBFE7000004
:104FD000540300205C0000205E00002030B583B048
:104FE0000446FFF753FA0546002000900246019060
:104FF00021466846FDF71BFD2846FFF75DFA01993B
:10500000009803B030BD000008B50346F02005F05D
:105010006FFB0D48007805F06BFB612005F068FB25
:10502000082005F065FB002005F062FB06480078CB
:1050300069304106490E00916846007805F058FB3A
:10504000F72005F055FB08BD5C00002010B50023DB
:10505000002100220C480088401E0C4C235C00BF3D
:1050600005E00A48805C4018C1B2501CC2B2064834
:105070000088401E9042F4DC4906490E8B4201D163
:10508000012010BD0020FCE7480000205403002050
:1050900010B50124F02005F02BFB0D48007805F039
:1050A00027FB602005F024FB402005F021FB204673
:1050B00005F01EFB06480078A0300019C3B25B065D
:1050C0005B0E184605F014FBF72005F011FB10BD30
:1050D0005C000020F1B584B0264908690A21FDF77B
:1050E0003DF800B20290244F03AA24A10498FDF7D2
:1050F0007FF8044619E003AA20A10020FDF778F804
:1051000004462078412805D1601CFDF7A8F800B2BC
:1051100002900AE02078532807D1601CFFF75EFF59
:1051200001910090FDF7D4FB0746002CE3D10298D3
:10513000FDF728FB05460E4611493846FDF7E4FB0E
:1051400001D20F4807E00C493846FDF7E7FB01D2D2
:10515000094800E03846074628463146FDF74EFB31
:105160003946019004F00AFB0F20FEF703FE05B05C
:10517000F0BD0000CC0500200000704220000000BF
:10518000000070C2F1B584B0254908690A21FCF716
:10519000E5FF0290234F03AA23A10498FDF728F806
:1051A000044618E003AA20A10020FDF721F80446D8
:1051B0002078412804D1601CFDF75EF802900AE0D7
:1051C0002078532807D1601CFFF708FF0191009059
:1051D000FDF77EFB0746002CE4D10298FDF7D2FADA
:1051E00005460E4611493846FDF78EFB01D20F48A1
:1051F00007E00C493846FDF791FB01D2094800E071
:105200003846074628463146FDF7F8FA39460190F8
:1052100004F0B4FA0F20FEF7ADFD05B0F0BD0000BC
:10522000CC0500200000704220000000000070C289
:10523000FEB507461D4E02AA1DA13846FCF7D8FF51
:10524000044618E002AA1AA10020FCF7D1FF044688
:105250002078502804D1601CFDF701F805B20AE05F
:105260002078532807D1601CFFF7B8FE0191009009
:10527000FDF72EFB0646002CE4D10E493046FDF723
:1052800043FB01D20B4807E008493046FDF746FBD7
:1052900001D2064800E0304606463146284604F072
:1052A0006DFA0F20FEF766FDFEBD000000007042A3
:1052B00020000000000070C2F8B506466A4613A13F
:1052C0003046FCF795FF0446002C05D06A460FA136
:1052D0000020FCF78DFF04462078442803D1601C91
:1052E000FCF7BDFF45B2681C0949087009480278FF
:1052F0000846017808A005F053F905480378FF2215
:1053000009A10D4805F05FF9F8BD0000200000007C
:105310005C0000205E000020472564204D313020D5
:105320005425640D0A000000472564204D313020CB
:105330004425640D0A00000000001540F1B582B05C
:10534000174F01AA17A10298FCF752FF044612E07A
:1053500001AA14A10020FCF74BFF04462078432843
:1053600009D02078532806D1601CFFF737FE054688
:10537000FDF7AEFA0746002CEAD109493846FDF799
:10538000CDFA04D308493846FDF7BEFA00D2044FDF
:105390003946002004F0F2F90F20FEF7EBFCFEBDC9
:1053A0000000704220000000000070C2F0B587B01D
:1053B00030490869FDF7E6F9064600222E4BFDF755
:1053C00057F9044600222D4BFDF7EAF800222C4B3A
:1053D00003910290FDF74CF90022134605910490C9
:1053E000FDF762FA1ED823490869FDF7CBF9064696
:1053F0000022214BFDF73CF9044600221F4BFDF72C
:10540000CFF800221E4B01910090FDF731F90022E8
:105410001C4B03910290FDF711F805910490FDF7E4
:10542000EDF91DE013490869FDF7ACF904460022C7
:10543000114BFDF71DF90022104B01910090FDF773
:10544000AFF8064600220E4BFDF712F900220D4B75
:1054500003910290FDF796F805910490FDF7CEF9BF
:10546000024606900848017808A005F099F807B0B0
:10547000F0BD0000CC0500200000244000807640F4
:105480000000B0400000E03F5C00002047256420A1
:105490004D33362041256C640D0A0000F8B50746EF
:1054A00007498868FDF75CF90646FDF7E9F9044607
:1054B00022460B460348017803A005F071F8F8BDB9
:1054C000CC0500205C000020472564204D38204991
:1054D000252E32660D0A000070B50546064908699A
:1054E0000A21FCF73BFE044622460448017804A04A
:1054F00005F056F870BD0000CC0500205C000020CF
:10550000472564204D35205025640D0A0000000019
:10551000F8B507460749C868FDF722F90646FDF7C2
:10552000AFF9044622460B460348017803A005F074
:1055300037F8F8BDCC0500205C000020472564202A
:105540004D362053252E32660D0A0000F8B5074669
:105550000749086BFDF704F90646FDF791F9044683
:1055600022460B460348017803A005F019F8F8BD60
:10557000CC0500205C000020472564204D372054D6
:10558000252E32660D0A0000F0B585B00C4948683A
:10559000FDF70CF9044600220A4BFDF769F80646B0
:1055A000FDF796F90190FDF76BF902460B46039162
:1055B00002900548017805A004F0F2FF05B0F0BDA7
:1055C000CC05002000408F405C000020472564206F
:1055D0004D392056252E32660D0A000010B50446BE
:1055E000034A0448017804A004F0DAFF10BD00006B
:1055F000600000205C000020472564204D313220EF
:105600005625730D0A000000F1B584B026490869DB
:105610000A21FCF7A3FD00B20290244F03AA24A1A3
:105620000498FCF7E5FD044619E003AA20A1002038
:10563000FCF7DEFD04462078412805D1601CFCF70C
:105640000EFE00B202900AE02078532807D1601CB9
:10565000FFF7C4FC01910090FDF73AF90746002CD2
:10566000E3D10298FDF78EF805460E4611493846FB
:10567000FDF74AF901D20F4807E00C493846FDF71B
:105680004DF901D2094800E0384607462846314620
:10569000FDF7B4F83946019004F060F90F20FEF7E9
:1056A00069FB05B0F0BD0000CC0500200000704291
:1056B00020000000000070C2F1B584B025490869DF
:1056C0000A21FCF74BFD0290234F03AA23A1049863
:1056D000FCF78EFD044618E003AA20A10020FCF789
:1056E00087FD04462078412804D1601CFCF7C4FDE6
:1056F00001900AE02078532807D1601CFFF76EFC68
:1057000001910090FDF7E4F80746002CE4D10298DF
:10571000FDF738F805460E4611493846FDF7F4F80E
:1057200001D20F4807E00C493846FDF7F7F801D2DF
:10573000094800E03846074628463146FDF75EF83E
:105740003946019004F00AF90F20FEF713FB05B06B
:10575000F0BD0000CC0500200000704220000000D9
:10576000000070C2FEB507461D4E02AA1DA13846B4
:10577000FCF73EFD044618E002AA1AA10020FCF73F
:1057800037FD04462078502804D1601CFCF767FDE3
:1057900005B20AE02078532807D1601CFFF71EFCF1
:1057A00001910090FDF794F80646002CE4D10E49D3
:1057B0003046FDF7A9F801D20B4807E0084930460A
:1057C000FDF7ACF801D2064800E030460646314607
:1057D000284604F0C3F80F20FEF7CCFAFEBD000007
:1057E0000000704220000000000070C210B50446A6
:1057F00000F0F2F90C49087008460078C007C00FA5
:1058000008700846007831300849087104F06AF8D9
:10581000002007490870602006490870034A06A165
:10582000074804F0D0FE10BD5F000020600000209B
:105830005C0000205E0000205625730D0A00000069
:1058400000000540F8B506466A4614A13046FCF74C
:10585000CFFC0446002C05D06A4610A10020FCF7BE
:10586000C7FC04462078432813D1601CFCF7F7FCE2
:10587000C5B2681EC507ED0F284600F091FA002852
:1058800003D10F20FEF776FA06E01120FEF772FA38
:1058900002E01320FEF76EFAF8BD000020000000C1
:1058A00010B5044603F048FC002803D10F20FEF792
:1058B00061FA02E01120FEF75DFA10BD7CB50646E4
:1058C000002501AA18A13046FCF792FC04460CE022
:1058D00001AA15A10020FCF78BFC04462078532870
:1058E00003D1601CFCF7BBFC05B2002CF0D1FE20FC
:1058F000C043854200DA04E0FF2D01DDFF2000E017
:1059000028460546012080020023FF221946009008
:10591000284600F0BFFC05B2284603F0FBFF0F202D
:10592000FEF728FA7CBD000020000000F1B582B02F
:1059300001AA17A10298FCF75BFC04461CE001AA2F
:1059400013A10020FCF754FC04462078522804D10F
:10595000601CFCF784FCC5B20EE02078472804D117
:10596000601CFCF77CFCC6B206E02078422803D11C
:10597000601CFCF774FCC7B2002CE0D13A463146FB
:10598000284604F03DFE0F20FEF7F4F9FEBD0000AE
:1059900020000000F8B506466A4610A13046FCF724
:1059A00027FC0446002C05D06A460CA10020FCF719
:1059B0001FFC04462078422803D1601CFCF74FFCF2
:1059C000C5B2002D02D003F08DFF03E00449002092
:1059D00003F0C4FF0F20FEF7CDF9F8BD2000000052
:1059E0000000A04010B504460120034908700F20B4
:1059F000FEF7C0F910BD00004700002010B50446B6
:105A00000D488078012813D10B48C07802280FD1A7
:105A10000948007903280BD107484079042807D1A9
:105A200005488079052803D10F20FEF7A3F902E08D
:105A30001120FEF79FF910BD5403002070B50446F5
:105A400000F038FC054600BF00F034FC401BA042CB
:105A5000FAD970BD10B50146F020084002110B07BD
:105A60001B0F5001024C00199C00005910BD000092
:105A70000042005030B505460C462846FDF79CFF15
:105A8000046030BD10B504460020C0430D490860D5
:105A9000FEF750F9FDF7C6FE0B48406804210843A5
:105AA00009494860FDF774FE7D204002FDF77AFE4B
:105AB0007F204002FDF776FEFDF756FEFEF718F94F
:105AC00010BD000080E100E0000200500EB5002093
:105AD00000904049496908460C30042202A904F0AC
:105AE000EBFB002847D13B494969084614300422A2
:105AF00001A904F0E1FB00283DD10199029840186A
:105B0000401C002809D13349496908461030042255
:105B1000694604F0D1FB002859D02E4949690C315F
:105B2000C81DFF30FA30042202A904F0C5FB00288A
:105B30004DD1284949691431C81DFF30FA3004227B
:105B400001A904F0B9FB002841D10199029840183D
:105B5000401C00280BD11F4949691031C81DFF3076
:105B6000FA300422694604F0A7FB00282FD0002059
:105B700004F05AFD2BE0174949690C31C81DFF306C
:105B8000FA30042202A904F097FB00281CD1114925
:105B900049691431C81DFF30FA30042201A904F00C
:105BA0008BFB002810D1019902984018401C002856
:105BB0000DD1084949691031C81DFF30FA3004225F
:105BC000694604F079FB02E0002004F02DFD009806
:105BD0000EBD000000C000500EB5002000903C49F2
:105BE0004869042202A904F067FB002844D138491F
:105BF000496908460830042201A904F05DFB002829
:105C00003AD1019902984018401C002808D1304927
:105C10004969081D0422694604F04EFB002855D04E
:105C20002B494969C81DFF30FA30042202A904F04B
:105C300043FB00284AD1264949690831C81DFF3075
:105C4000FA30042201A904F037FB00283ED1019963
:105C500002984018401C00280AD11D494969C81DF6
:105C6000FF30FE300422694604F026FB00282DD0C8
:105C7000002004F077FD29E015494969C81DFF306F
:105C8000FA30042202A904F017FB00281BD11049A6
:105C900049690831C81DFF30FA30042201A904F017
:105CA0000BFB00280FD1019902984018401C0028D6
:105CB0000CD107494969C81DFF30FE3004226946EE
:105CC00004F0FAFA02E0002004F04CFD00980EBD4A
:105CD00000C000503EB504460025002000902F492A
:105CE000496908460C30042202A904F0E5FA0028AC
:105CF0001ED12A49496908461430042201A904F03A
:105D0000DBFA002814D125494969084610300422DD
:105D1000694604F0D1FA00280AD101990298401886
:105D2000401C002804D10098A04201D128463EBD65
:105D30001A4949690C31C81DFF30FA30042202A902
:105D400004F0BAFA002822D1144949691431C81D57
:105D5000FF30FA30042201A904F0AEFA002816D16F
:105D60000E4949691031C81DFF30FA3004226946D6
:105D700004F0A2FA00280AD1019902984018401CA8
:105D8000002804D10098A04201D12846CFE7204640
:105D900004F04AFC05462846C9E7000000C0005050
:105DA0003EB504460025002000902C494869042295
:105DB00002A904F081FA00281DD128494969084642
:105DC0000830042201A904F077FA002813D12349EE
:105DD0004969081D0422694604F06EFA00280AD1B8
:105DE000019902984018401C002804D10098A04254
:105DF00001D128463EBD19494969C81DFF30FA3016
:105E0000042202A904F058FA002821D11349496953
:105E10000831C81DFF30FA30042201A904F04CFA01
:105E2000002815D10D494969C81DFF30FE300422F4
:105E3000694604F041FA00280AD1019902984018F5
:105E4000401C002804D10098A04201D12846D1E787
:105E5000204604F087FC05462846CBE700C00050EA
:105E600000200EE00B49095C0B4A116000BF0A4993
:105E70008969012212071140090F0029F7D0411C3E
:105E8000C8B2064909888842ECDB0021034A118028
:105E90007047000054030020000015404800002017
:105EA00008B5FF20009034480078012800D108BDD3
:105EB00000F000FA3149086054E03148314909885E
:105EC000405C009030480078002803D16846007894
:105ED000F02807D02C480078012806D168460078C1
:105EE000472802D1012029490870684600782849CE
:105EF000086000BF26488069012109070840000F9B
:105F00000028F7D01F4800887F2801D1002002E038
:105F10001C480088401C1B4908801E480088401E01
:105F200000B21C49088018480078002803D1684650
:105F30000078F72807D014480078012807D1684670
:105F400000780A2803D100201049087010E000F002
:105F5000B1F90A490968401AC82803D900200B4939
:105F6000087005E0074800880B4909888842A4D1D9
:105F700000BF00BF9BE7000046000020900000200B
:105F8000D4010020520000205F00002045000020C6
:105F9000000005404C0000205400002008B5FF2000
:105FA000009034480078012800D108BD00F082F943
:105FB0003149086054E0314831490988405C00901B
:105FC00030480078002803D168460078F02807D0D0
:105FD0002C480078012806D168460078472802D16D
:105FE000012029490870684600782849086000BFE8
:105FF00026488069012109070840000F0028F7D0D2
:106000001F4800887F2801D1002002E01C4800883A
:10601000401C1B4908801E480088401E00B21C49D5
:10602000088018480078002803D168460078F728CF
:1060300007D014480078012807D1684600780A285C
:1060400003D100201049087010E000F033F90A492C
:106050000968401AC82803D900200B49087005E0D8
:10606000074800880B4909888842A4D100BF00BFB7
:106070009BE70000450000208C000020D402002097
:106080004E0000205F000020460000200000054078
:106090004A000020500000200146102907D0122994
:1060A00005D0132903D0142901D0152901D10120CD
:1060B00070470020FCE7000086B0002004900390A9
:1060C000FDF738FEFDF78EFD00BF00206049086037
:1060D00000BFE1204002FDF78FFFE1204002FDF705
:1060E0009DFF002003460322E12149020090594808
:1060F000FEF716F8002003460322E1214902009032
:106100005548FEF70DF8FDF797FF5448FDF750FF8F
:106110000820FDF7E3F800F079FE03F069FDFFF7D2
:106120005BFD4F49087008460078C007C00F087033
:106130000846007831304B49087102F077FE02F0D2
:1061400051FA0020484908704849087060204849C1
:1061500008700A20FFF772FC424A46A13D4804F04D
:1061600032FA73E000F056FFFFF718FFFFF798FED2
:1061700042480078002804D000204049087002F00E
:106180009BFF3F480078002806D000203C4908705B
:1061900000F03AFB02F048FAFBF7F4FF0446FCF784
:1061A000DFFA039037480399FCF7CCF805464F21F6
:1061B0000906FCF704F904460021FCF7AFFB14D8EC
:1061C00030480399FCF7BEF84F2109060090FCF710
:1061D000F6F80190FCF754FB064600222A4BFCF728
:1061E0002DF90446FCF70AFB14E026480399FCF756
:1061F000A9F807464F210906FCF7E1F80446FCF729
:106200003FFB0022204B01910090FCF7BBF90546B3
:10621000FCF7F4FA0290FCF7A3FA03901B480399E9
:10622000FCF737F8064600F045F819490968451AA1
:106230002846FCF7A0FA04463146FCF76FFB05D26E
:1062400000F038F81249086002F04EFB8AE70000BF
:10625000000100500000054000001540102700001C
:106260005F000020600000205C0000205D00002036
:106270005E0000205625730D0A000000C1000020BA
:10628000C0000020000020410000E03F0000F0417D
:106290000C000020F8B506460C4617461D46321B7A
:1062A000069B5B1B5A431046391BFBF757FF4019EF
:1062B000F8BD000010B50A2102480068FBF738FF5E
:1062C00010BD00001000002070B5054600242848CD
:1062D0000078002805D0052026490860642026495A
:1062E00008602648C06B002801D0052070BD2348F7
:1062F000046A214800681F4909684018A04207DA6B
:106300001D4800681B49096840181B49086010E0D7
:106310001948006817490968401AA04207DD164865
:10632000006814490968401A1349086001E01248DE
:1063300004601248406B40420F490968884203DDFF
:106340000E48406B40420AE00C48406B0A4909681D
:10635000884202DA0948406B01E0074800680649B4
:1063600008600846008800B203F0B6FB0620BDE7CF
:10637000D800002038010020D4000020CC050020E7
:1063800070B50546002429480078002808D0002070
:106390002749C86088612749C86088612649086024
:1063A00026480068002800D170BD2549486B234964
:1063B0000968002902DD2149096802E01F490968CE
:1063C0004942C20F12185210914203DD05201A49AA
:1063D000086002E00220184908600024174800689D
:1063E000154909684018A04207DA144800681249A4
:1063F000096840181149086010E0104800680E490B
:106400000968401AA04207DD0C4800680A4909687B
:10641000401A0A49086001E00848046007480088FB
:1064200000B203F059FB0520BEE70000D8000020B1
:106430006C0500208C05002034010020D4000020D1
:10644000CC05002010B504460C48007800280DD07B
:1064500000200B49C86088610A49C86088610A4900
:10646000086003F03FFA01210848017106480088DE
:1064700000B203F031FB002010BD0000D800002066
:106480006C0500208C050020D40000200C060020A4
:10649000F0B58FB0D548007800281AD0D449C96823
:1064A00088023E21FBF75AFE0B90D24841680B98B8
:1064B000FBF754FECF49C86000208861C8200860FF
:1064C000112048600020CC4988610A20086014200F
:1064D0008860C748C06B002802D005200FB0F0BD0F
:1064E000C348C069C2490969441A002C03DD052C60
:1064F00001DA00240CE0052C01DB641F08E0002C0D
:1065000005DC0420C043844201DB002400E0641D5C
:106510001320C043844200DA04E0142C01DD14206F
:1065200000E020460446B44881684069201A41438F
:10653000B148006860430818AF498861084680691F
:10654000AB49496B4942884203DAA948406B404253
:106550000AE0A9488069A649496B884202DDA4483F
:10656000406B01E0A4488069A34988610846446102
:1065700019277F013C200C903846FCF703F90022D4
:106580007B060791069000F073FE02460B460991C8
:10659000089000209949FCF76BF80B910A90FCF7E2
:1065A00097F90D909248C06991490969441A002CE5
:1065B00003DD052C01DA00240CE0052C01DB641F4F
:1065C00008E0002C05DC0420C043844201DB0024E9
:1065D00000E0641D002C01DD204600E060420E90CA
:1065E0000E9800280DD10025814840300079002800
:1065F00002D18349886A804701217D48403001717A
:1066000037E00E98B84229DA0C98FCF7BBF80991EC
:1066100008900E99C81BFCF7B5F8002201239B07D0
:106620000191009000F024FE059104900D98FCF774
:1066300027F903910290059B049AFBF7B1FF07919C
:106640000690099B089AFBF7F9FE0B910A90FCF75C
:10665000D5F80546012D0CDA01250AE06448806969
:10666000002802DD6248806902E06148806940429A
:106670000546002D01DA002017E05D4880690028FA
:1066800002DD5B48806902E0594880694042A842C7
:106690000ADA57488069002802DD5548806904E01D
:1066A00053488069404200E028460546504805644A
:1066B000002C06DD002D01DD284600E0684205467D
:1066C00005E0002D01DD284600E0684245424848CB
:1066D000C0682E1A1320C043864200DA04E0142E4C
:1066E00001DD142000E0304606464248C0688019AB
:1066F0004049C8600A4651683D4A526B0A235A43D2
:106700001046FBF72BFD40423A49C96888420ADD32
:10671000384A5168364A526B0A235A431046FBF7EF
:106720001DFD404218E0334A5168314A526B0A233A
:106730005A431046FBF712FD2E49C968884209DA10
:106740002C4A51682A4A526B0A235A431046FBF7D7
:1067500005FD01E02748C0682649C8604A68C96845
:106760004A4324490968714350180A21FBF7F6FC93
:1067700020498861084680691D49496B4942884221
:1067800003DA1B48406B40420AE01A488069184906
:10679000496B884202DD1648406B01E0154880696C
:1067A000144988611448806989694018154908604E
:1067B0000F48406B40420968884203DD0C48406B3B
:1067C00040420AE00A48406B0E490968884202DAF2
:1067D0000748406B01E00B4800680A49086008461A
:1067E000008800B203F078F9032077E6D800002093
:1067F000CC0500206C0500208C05002000004EC058
:10680000DC000020D400002010B5144800780028D7
:1068100000D110BD1248007812490978884206D08C
:10682000104800780E49087001200F4908700D4A81
:1068300012780C235A430D4BD21810460830094ADF
:1068400012780C235A43094B995888470549087018
:1068500000200549087000BFDBE70000CC050020E0
:106860003C0100207E010020D8000020DC00002038
:1068700070B50546002428480078002805D01E2061
:10688000264908600020264908602648C06B002879
:1068900001D0052070BD2348046A214800681F49C3
:1068A00009684018A04207DA1D4800681B490968BA
:1068B00040181B49086010E019480068174909682A
:1068C000401AA04207DD1648006814490968401ABA
:1068D0001349086001E0124804601248406B4042CE
:1068E0000F490968884203DD0E48406B40420AE0C8
:1068F0000C48406B0A490968884202DA0948406B33
:1069000001E007480068064908600846008800B2B0
:1069100003F0E2F80120BDE7D8000020300100209C
:10692000D4000020CC05002070B506464C48007805
:10693000002813D04B49C96888023E21FBF70EFCA2
:106940000546494841682846FBF708FC4649C860A7
:1069500000208861C8200860142048604148C06B4E
:10696000002801D0052070BD3E4880693D4908647B
:1069700008468069C968441A1320C043844200DA7B
:1069800004E0142C01DD142000E0204604463648C3
:10699000C06800193449C8600A465168314A526BD0
:1069A0000A235A431046FBF7D9FB40422E49C968D7
:1069B00088420ADD2C4A51682A4A526B0A235A43FC
:1069C0001046FBF7CBFB404218E0274A5168254AA6
:1069D000526B0A235A431046FBF7C0FB2249C96891
:1069E000884209DA204A51681E4A526B0A235A43E8
:1069F0001046FBF7B3FB01E01B48C0681A49C860AA
:106A00004968194AD2685143174A12686243881884
:106A10000A21FBF7A3FB14498861084680691149E4
:106A2000496B4942884203DA0E48406B40420AE013
:106A30000D4880690B49496B884202DD0948406B6B
:106A400001E009488069084988610846806907496A
:106A500008600846008800B203F03EF8022082E792
:106A6000D8000020CC0500206C050020D4000020B8
:106A7000F0B58FB0DD480078002822D0DC49C96825
:106A800088023E21FBF76AFB0B90DA4841680B98BD
:106A9000FBF764FBD749C86000208861C820086004
:106AA000112048600020D44988610A200860142021
:106AB00088600020D149C860886164200860022095
:106AC0004860CB48C06B002802D005200FB0F0BD55
:106AD000C748C069C6490969441A002C03DD052C62
:106AE00001DA00240CE0052C01DB641F08E0002C17
:106AF00005DC0420C043844201DB002400E0641D67
:106B00001320C043844200DA04E0142C01DD142079
:106B100000E020460446B8488068B7494969611AD0
:106B20004843B549096861434018B349886108463C
:106B30008069AF49496B4942884203DAAC48406BEF
:106B400040420AE0AC488069A949496B884202DDAD
:106B5000A748406B01E0A8488069A74988610846BA
:106B6000446119277F013C200C903846FBF70AFE50
:106B700000227B060791069000F07AFB02460B4646
:106B80000991089000209E49FBF772FD0B910A9035
:106B9000FBF79EFE0D909648C06995490969441A15
:106BA000002C03DD052C01DA00240CE0052C01DBB0
:106BB000641F08E0002C05DC0420C043844201DB94
:106BC000002400E0641D002C01DD204600E060424E
:106BD0000E900E9800280DD1002585484030007990
:106BE000002802D18749486B804701218048403006
:106BF000017137E00E98B84229DA0C98FBF7C2FD14
:106C0000099108900E99C81BFBF7BCFD00220123D7
:106C10009B070191009000F02BFB059104900D98CB
:106C2000FBF72EFE03910290059B049AFBF7B8FC3C
:106C300007910690099B089AFBF700FC0B910A90BC
:106C4000FBF7DCFD0546012D0CDA01250AE068485A
:106C50008069002802DD6648806902E06448806936
:106C600040420546002D01DA002017E060488069A7
:106C7000002802DD5E48806902E05D48806940428C
:106C8000A8420ADA5A488069002802DD584880691B
:106C900004E057488069404200E0284605465448D1
:106CA0000564002C06DD002D01DD284600E0684269
:106CB000054605E0002D01DD284600E0684245421A
:106CC0004B48C0682E1A1320C043864200DA04E005
:106CD000142E01DD142000E0304606464548C06809
:106CE00080194449C8600A465168414A526B0A23D8
:106CF0005A431046FBF732FA40423E49C96888427F
:106D00000ADD3C4A51683A4A526B0A235A431046FC
:106D1000FBF724FA404218E0364A5168344A526B75
:106D20000A235A431046FBF719FA3249C9688842C8
:106D300009DA304A51682E4A526B0A235A431046E8
:106D4000FBF70CFA01E02B48C0682A49C860496883
:106D5000284AD2685143274A1268724388180A2188
:106D6000FBF7FCF923498861084680692049496B93
:106D70004942884203DA1E48406B40420AE01D48FF
:106D800080691B49496B884202DD1948406B01E06C
:106D900018488069174988611748806989694018CF
:106DA000194908601248406B40420968884203DD77
:106DB0000F48406B40420AE00D48406B1249096899
:106DC000884202DA0A48406B01E00F4800680E4929
:106DD00008600749496A880002F078FE0A4800887E
:106DE00000B202F079FE042070E60000D800002016
:106DF000CC0500206C0500208C050020AC0500208F
:106E000000004EC0DC000020D400002008B5074878
:106E100010230422002100900548FCF7E9FD002220
:106E200001210348FCF7D8FD08BD0000808D5B0000
:106E300000400340114880680C2290430122104317
:106E40000E4A906000201062104600680122104334
:106E50000A4A106000BF09480068C007C00F002838
:106E6000F9D106480169C9108068082290430522BB
:106E70001043024A906008B270470000004003408F
:106E8000F8B5064600273046FBF7E9F9C4B22148B9
:106E90000078002806D11020FCF76CFF01201D4966
:106EA0000870F8BD00201B490870FF2C03D01A4859
:106EB0000078844221D119A13046FBF7BFF905467D
:106EC000002D16D016494919481CFBF7C8F9C7B25E
:106ED000FF2C09D10A2F07D0472003F035FCFEF71D
:106EE000BFFF0A2003F030FC0D49481900F01AF8E2
:106EF00002E01220FCF73EFF07E0472003F024FCED
:106F0000FEF7AEFF0A2003F01FFC012001490870C4
:106F100000BFC6E7440000205C0000204D000000D8
:106F20005403002070B50446601CFBF798F9C5B205
:106F30002B00FDF702FA266C14181C2024282C3094
:106F400034383C406C6C6C6C6C6C44486C6C6C6C95
:106F50006C6C6C6C6C4C5054585C6064686C204673
:106F6000FEF766F954E02046FEF7FCFB50E02046B1
:106F7000FEF710FD4CE02046FEF7D8FC48E0204626
:106F8000FEF7AAFA44E02046FEF7C2FA40E02046A7
:106F9000FEF7DCFA3CE02046FEF780FA38E02046B7
:106FA000FEF7F2FA34E02046FEF786F930E020469C
:106FB000FEF71CFC2CE02046FEF710FB28E02046E4
:106FC000FEF740FC24E02046FEF70CFD20E02046C2
:106FD000FEF766FC1CE02046FEF77CF818E0204631
:106FE000FEF712FB14E02046FEF7CCF810E0204636
:106FF000FEF762FB0CE02046FEF760FC08E020464E
:10700000FEF7D4F904E02046FEF798F900E000BF4F
:1070100000BF70BD08B5FF200090CCE06A486B4906
:107020000988405C00906A48007800287FD1694850
:10703000007801281FD168460078F72805D1002084
:107040006449087000F012FEA4E0684600786249C6
:10705000624A1288885461480088401C5F49088051
:10706000084600885E498842EEDD002059490870D4
:107070005A4908808EE068460078F02806D1012041
:107080005449087000205549088083E0554800782D
:10709000012841D1684600784F49504A12888854E7
:1070A0004E480088401C4D49088008460088052845
:1070B00070D100204B490870484908804648007844
:1070C000552867D144484078032863D14248C078A6
:1070D00001285FD14048007900285BD100BFFF2123
:1070E000414A1160552111603B49897811600421A2
:1070F00011600921116000BF05E03C49095C3A4A72
:107100001160411C08B20928F7DB0D21364A1160D5
:107110000A2111603EE00AE068460078FF2839D174
:1071200001203049087000202C49088032E02848AE
:10713000007801282ED12E480078002820D06846FB
:1071400000780A2806D10020294908702248FFF754
:1071500097FE1FE0684601781F48204A1288815434
:107160001E480088401C1D490880084600881C49AC
:1071700088420FDD00201E4908701849088009E088
:1071800068460078472805D1012019490870002079
:10719000124908800D4800887F2801D1002002E0B4
:1071A0000A480088401C0949088012480088401E8F
:1071B00000B210490880054800880F4909888842B4
:1071C00000D02BE708BD000054020020580000202A
:1071D0005F000020400000205403002048000020F1
:1071E000FF01000041000020000005406000002079
:1071F00043000020560000205A000020F8B5044645
:107200000D46F020204006112107090F012088407B
:10721000C7B23300FDF791F805040A11181F2600C4
:107220002A4639461148FCF77DFB1CE02A463946C0
:107230000E484030FCF776FB15E02A4639460B48ED
:107240008030FCF76FFB0EE02A4639460748C03015
:10725000FCF768FB07E02A4639460448C030FCF7D3
:1072600061FB00E000BF00BFF8BD0000004000501F
:10727000F0B51FB496B084460C460246199D189886
:107280000390490068006300490840080193002A00
:1072900001D0012600E000269E19FE4BF6185B1077
:1072A0009E422BD36E00039F0296002F00D0012731
:1072B000F719F84EF84BBE199E421FD3039E0346A2
:1072C000F64F334309D03B469C4201D1002A04D0FB
:1072D000019B002A05D0012604E0002039461BB09E
:1072E000F0BD00269E19EE4B9E4207D8039F029EDA
:1072F000002F00D00127F6199E4207D92B46604681
:107300002146189AFDF7A2F81BB0F0BD0023002C0F
:1073100029DAE44EB04226DAE34EB04201DB022322
:1073200021E0DE4EB0421EDBE04E070DBE19142EEA
:1073300009DD3427BF1B039EFE400196BE40039F1C
:10734000BE420BD00FE0039F002F0CD11427BF1BB0
:107350000646FE400196BE40864204D1019BDE07F0
:10736000F60F02239B1B0E46164318D1002D16DA8A
:10737000002C03D0022B01D0012B06D00220FDF7F8
:107380009BF8FDF759F81BB0F0BD0220FDF794F80B
:10739000FDF752F80122D20751401BB0F0BD039E09
:1073A000002E61D1BF4EB04220D1C148844201D1EC
:1073B000002A08D0B948814209DB002D10DB18985B
:1073C00029461BB0F0BD0020B4491BB0F0BD002D14
:1073D00006DA01222946D207189851401BB0F0BDA9
:1073E000B4497944086849681BB0F0BDAB4FB84256
:1073F00025D1002D1FDA002904D0B14212D1002A74
:1074000009D018E0002A72D1A649E20F0020D20765
:1074100011431BB0F0BD0020E20F0146D20711431B
:107420001BB0F0BDB14206DA234600203946FBF717
:107430001FF91BB0F0BD104621461BB0F0BDB14294
:1074400012DA0126B607B54203D123461046194683
:10745000FEE3994EB54207D1261E05DB10463146A4
:1074600003F006F81BB0F0BD67007F081646002A3F
:1074700040D100290AD08B4A914229D1002C0EDD3F
:10748000002D1CDB002011461BB0F0BD022B16D0D6
:10749000002C14D0012B12D1002C14DB0FE0002C97
:1074A00028DA002D09DB012B03D000207D491BB019
:1074B000F0BD002081491BB0F0BD012B03D000209E
:1074C00001461BB0F0BD00200121C9071BB0F0BD73
:1074D000724A91420ED1002C01DA002B17D0022BF8
:1074E00006D00020C043FBF74DF91BB0F0BD90E281
:1074F0000120F8E7E217521C94461A4307D00022F5
:107500000892664C62465B1E1A4307D009E00120D0
:10751000FCF7D2FFFCF79EFF1BB0F0BD0022644CCD
:107520000892674A90427DDD664B674A98421FDDAC
:10753000914202DC002D05DB4DE05848814217DB0B
:10754000002D48DD0220FCF7B7FFFCF78BFF054656
:107550000E460022534B21460898FBF721F80846B7
:1075600071004908C00FC007014328461BB0F0BD99
:10757000914215DA002D2EDA0220FCF79DFFFCF770
:1075800071FF05460E460022464B21460898FBF740
:1075900007F872005208C80FC0070243114617E0EF
:1075A0003E4B994223DD002D15DD0220FCF784FFC0
:1075B000FCF758FF05460E4600223A4B2146089834
:1075C000FAF7EEFF084671004908C00FC0070143F3
:1075D00028461BB0F0BD0220FCF76EFFFCF74CFF05
:1075E00049004908E20FD20711431BB0F0BD002249
:1075F00030463946FAF7C6FF012205460E46D24309
:10760000FBF724FB314A324BFAF7C2FF2A463346D6
:10761000FAF7C6FF0022284BFAF7BAFF07462A46B8
:10762000334600E064E0039110461946FAF7B8FFCC
:107630003A46039BFAF7B4FF074603220991520723
:10764000244B28463146FAF7ABFF07910C90224AAB
:10765000204B38460999FAF7A3FF074601911F4AC4
:107660001F4B28463146FAF79BFF3A46019BFAF733
:1076700089FF07460B460246099107990C98FAF7CD
:10768000DDFE00250E462846079B0C9AFAF77AFF86
:107690003A4627E0FFFF1F00FFFF0F000000F03F0A
:1076A0000000E0FF0000F07F0000404301FCFFFF0E
:1076B0000000F0BF923500000000E03F0000F0FF46
:1076C0000000E0410000F043FFFFEF3F55555555E6
:1076D0005555D53F4715F73FFE822B6544DF5DF8D2
:1076E0000BAE543E099BFAF753FF02460B4652E19C
:1076F000012500202D05A94207DA352230463946FA
:10770000FBF7A4FA06463420C0430A151218FE48B7
:10771000101803900803FD49000B01430F46FC4974
:10772000884201DC002003E0FA49884202DA0120A5
:10773000119005E0002011900398401C7F1B0390DE
:1077400011980597C200F4480F9278448018436856
:107750000268394630460D930292FAF713FF0791FB
:107760000C9030460D9B029A0599FAF767FE024687
:107770000B460020E549FAF77BFF09910490079B2F
:107780000C9AFAF70DFF129000201090E3480D4676
:10779000784400680E900121781049070843119938
:1077A0000D9B890440180121C90447183946029AE3
:1077B0000E98FAF7E7FE3246059BFAF7E9FE024615
:1077C0000B4629461098FAF7EBFE064602913B4617
:1077D00029460E9A1098FAF7E3FE079B0C9AFAF7DF
:1077E000D7FE3246029BFAF7CDFE099B049AFAF7C0
:1077F000D7FE0591129A0A902B4610461946FAF7C1
:10780000CFFE06460246C6480F460B460621784480
:10781000FCF7BCFD32463B460091049010461946E9
:10782000FAF7BEFE009B049AFAF7BAFE06460F4628
:107830002B461946129A1098FAF700FE059B0A9AF1
:10784000FAF7AEFE32463B46FAF7F8FD109A07917A
:1078500004902B4610461946FAF7A2FEB14E0022BC
:10786000334609910290FAF7E9FD079B049AFAF76B
:10787000E5FD00200746024633460091FAF782FEF6
:10788000099B029AFAF77EFE079B049AFAF780FE9C
:1078900006460D913A462946009B1098FAF780FE5D
:1078A00007910C902B463046129A0D99FAF778FE04
:1078B00005460E463A46009B05990A98FAF770FE6F
:1078C00033462A46FAF7BAFD02460B4607460991A7
:1078D00007990C98FAF7B2FD00250E462846079B3B
:1078E0000C9AFAF74FFE3A46099BFAF751FE074603
:1078F0000722099152078C4B31462846FAF750FE71
:1079000007910090894A884B38460999FAF748FE52
:1079100007460191864A874B31462846FAF740FED2
:107920003A46019BFAF78AFD834B7B440F9A9B18DA
:107930001A685B68FAF782FD029009910398FAF7DA
:1079400021FF05910490099B029A07990098FAF784
:1079500075FD7A4B7B440F9A9B181A685B68174633
:107960000393FAF76BFD059B049AFAF767FD0E4641
:107970002846059B049AFAF705FE3A46039BFAF758
:1079800001FE079B009AFAF7FDFD099B029AFAF7A0
:10799000FFFD02460B46199900200C900F461898DF
:1079A000FAF7FEFD029104903B460C9A199918983B
:1079B000FAF7E8FD2A463346FAF7F2FD029B049AED
:1079C000FAF73CFD09910E902A46334639460C9849
:1079D000FAF7E6FD06460F46099B0E9AFAF72EFDCA
:1079E000574A0D46914220DB5242AA18024310D159
:1079F00032463B46FAF7C6FD04900391514A524B7A
:107A000009990E98FAF71AFD039B049AFAF74CFFAE
:107A10001ED20220FCF750FDFCF724FD4900490866
:107A2000E20FD20711431BB0F0BD6A00474B52086A
:107A30009A420DD3464AAA18024300D0CBE53246FB
:107A40003B46FAF79FFD099B0E9AFAF72DFFF5D9F1
:107A50006800002340082C490393020D3D4B521847
:107A6000984223DD01200005521CD04042195000ED
:107A7000400D401838497944096813468C46374907
:107A8000C1408B4312030121120B09055118142226
:107A9000101AC1400391002D01DA4842039062465A
:107AA00030463946FAF76EFD06460F4632463B46EB
:107AB00009990E98FAF7C2FC00252A46284B284659
:107AC0000591FAF76DFD07910C90264A264B284642
:107AD0000599FAF765FD0091029032463B4628462B
