:020000040000FA
:10200000700E0020D5200000FB200000FD20000005
:1020100000000000000000000000000000000000C0
:10202000000000000000000000000000FF20000091
:10203000000000000000000001210000032100005A
:1020400005210000052100000521000005210000F8
:10205000052100007D390000052100000521000058
:10206000D53F0000052100000521000005210000EA
:1020700085400000A9400000052100000521000066
:102080000521000005210000F939000005210000AC
:1020900005210000052100000521000005210000A8
:1020A0000521000005210000052100000521000098
:1020B0000521000005210000052100000521000088
:1020C0000348854600F00CFE00480047A962000066
:1020D000700E00200C480D4901600D4901600D494A
:1020E00001600D4A0D4911600D4A0E491160002131
:1020F00001600D4880470D480047FEE7FEE7FEE718
:10210000FEE7FEE7FEE70000000100505900000076
:10211000160000008800000024000050A55A0000AE
:10212000800300501F000000D53E0000C1200000C9
:1021300030B50B46014600202022012409E00D465F
:10214000D5409D4205D31D469540491B25469540E7
:1021500040191546521E002DF1DC30BD70B500242B
:102160002546002801DA01244042002901DA012530
:102170004942FFF7DDFFAC4200D04042002C00D0C6
:10218000494270BD0549064A08685043054A80180F
:10219000086040087047014908607047440100200A
:1021A0006D4EC6413930000003460B439B0703D0F8
:1021B00009E008C9121F08C0042AFAD203E00B780C
:1021C0000370401C491C521EF9D27047D2B201E084
:1021D0000270401C491EFBD270470022F6E710B582
:1021E00013460A4604461946FFF7F0FF204610BD85
:1021F00070B5002800D11068002514E00B4602E0FD
:10220000A64203D05B1C1C78002CF9D1E3B22B430F
:1022100007D0002C06D0002D04D000210170401CF6
:1022200004E00546401C0678002EE7D110602846E1
:1022300070BD014ADCE700004801002030B50546CA
:10224000002008E00A4602E0A34207D0521C13789F
:10225000002BF9D1401C2C5C002CF3D130BD70B5A3
:10226000064602F00BFA046805460A2200213046B1
:1022700000F028FC2C6070BD70B5064602F0FEF937
:10228000046805460A220021304600F01BFC2C6041
:1022900070BDF8B502464A40D40F42004B005208C8
:1022A0005B089A4202D20246084611464A0023D0F1
:1022B000C30D4A00DDB2120EAD1A202D35DA4902E7
:1022C0000126490AF6058A19002C00D05242202125
:1022D0004F1B1146B9402A411018C20D9A4221D015
:1022E000002C17D0012D08DCDA05801AD20F8019D6
:1022F000D207DBB200F026FCF8BDDA05801A012314
:1023000040001B06C01880185A428018CA0F10439C
:10231000490007E04908C2071143DA05801A80190D
:102320004008801800F006FCF8BD61000122511A37
:10233000001BF7E70122D2075140AAE70122D2078A
:102340005040A6E7024670B54A40D30FDB07400075
:102350002DD04A002AD0010E140E000212020919D3
:10236000400A520A8418E50104465443000A120A3E
:102370002E045043A4194219200CC543AA18120C6C
:102380000125AD03521C521912047F39240400D0D8
:10239000521C104301D44000491EC2B20C06C009B1
:1023A0002018401C4008802A02D003E0002070BDA5
:1023B00040084000002900DA0020184370BD70B5C5
:1023C00002464A40D50F40004A00ED074008520837
:1023D000002814D0002A12D0C40DD30D41020120D0
:1023E000C0055202490A520AE41A091812187D342B
:1023F000914201D3641C00E04900002C01DA002066
:1024000070BD0023914201D3891A0343400849005B
:102410000028F7D100290AD0914202D10121C90731
:1024200005E0914201D2012101E00121C943E0050B
:10243000C018401900F07EFB70BD0000F0B50746E3
:102440000846584087B0C00F049048000E46590017
:1024500040084908BC1A884105D2384631461E4614
:1024600017460B4602465800400810434CD0300D2A
:10247000039040055900400D490D0590401A029007
:10248000402872DA18030121000B09050843019066
:1024900004980092002805D00199524200208841FA
:1024A00000920190029840210A1A0199009800F0C8
:1024B00083FA05460C466B4607CB00F09EFAC0191E
:1024C0007141039A0E0D0023D71756401A467A40E1
:1024D000164344D0049A002A2DD0029A012A039A66
:1024E00015DC1205C01A914101263605001C714108
:1024F000D20F059ED2070093019202962A462346E8
:1025000000F066FB07B0F0BD38463146FAE7160525
:10251000224A0F46B218C01AB74101210905001C12
:102520004F4100187F41114618187941E20F1043BE
:102530006D19644113E0E2076D0815436408C20792
:102540001443039A01261205C01A91413605001C56
:102550007141CE07400830434908C01851412A460E
:10256000234600F028FBCDE7FFE704980122400056
:10257000C117121A00238B4104983146C417381A28
:10258000A141EEE730B40124E407634030BC55E7D5
:1025900030B40124E407614030BC4FE70000E0FFA5
:1025A000F0B51FB488B00B990998002448400999E8
:1025B000C00F490049080991C0070B9900904900D4
:1025C00049080B9109990898A64608431CD00B9915
:1025D0000A98084318D0099801244000420D480089
:1025E000410D099824050003000B204309900B9826
:1025F0000003000B20430B9050181C494018002288
:1026000001901446104605E0002001460DB0F0BDD3
:10261000032801DA034600E003239C46C11A0AAEF0
:102620000AE05F0008ADED5B4F00F75B7D430027DC
:10263000AA187C41491C5B1E6145F2DD410004ABD8
:102640005A522104120C0A43240C401C0828DFDBD8
:10265000019802900099704601910090059B049AA0
:102660000799069800F0B4FAD0E700000DFCFFFFD0
:10267000F0B50C465C4085B0E40FE40703944C00D1
:1026800000266408590094464908024602962243EF
:1026900021D062460A431ED06200570D4A000E0345
:1026A0002303550D012402462C492405781B1B0BDE
:1026B000360B401823432643614600901C46501AAF
:1026C000B44103D30098401C009002E09218009897
:1026D0005B41002803DA0020014605B0F0BD002070
:1026E000012109050746864611E064461D46141B74
:1026F000B54106D36546521BB341744607430C43AC
:10270000A646CD0740084908284392185B41054674
:102710000D43EAD11046184313D060461946504085
:102720007140084306D06046101AB34106D2012218
:10273000002306E000220123DB0702E00122D2434E
:102740005310009874460105381C6141029C039D9A
:102750000019694100F02FFABFE70000FD030000F7
:10276000C217C10F504010B54018CA079623002168
:1027700000F0E8F910BD10B500229623114600F0D4
:10278000E1F910BD0EB5C217C10F5040CA0740187D
:102790000021054B0293019200910A460B4600F07E
:1027A00017FA03B000BD0000330400000EB5054960
:1027B0000291002100910A460B46019100F008FAAF
:1027C00003B000BD33040000C20F410040020123EA
:1027D000400ADB05D207090EC0187F2901DA002064
:1027E0007047962903DC9623591AC84001E09639B0
:1027F0008840002AF4D04042704741004002012244
:10280000400AD205090E80187F2901DA002070479E
:10281000962903DC9622511AC840704796398840A1
:102820007047000070B5CD0F4A0009030123090B62
:102830001B0519430B4BED070024520D9A4201DA98
:10284000002070BD074B34339A4203DC9A1A00F023
:10285000C3F802E00449511888402C43F1D04042AB
:1028600070BD0000FF030000CDFBFFFF4A0009031D
:102870000123090B1B051943094B10B5520D9A4250
:1028800001DA002010BD064B34339A4203DC9A1A59
:1028900000F0A2F810BD03495118884010BD000097
:1028A000FF030000CDFBFFFFC20FD207400040082E
:1028B0000BD0C10D0723DB01C91840020905400AEE
:1028C0001143C2084007114370470020014670477A
:1028D00010B5002904DB0124E40740428C41214665
:1028E000002B04DB1C460123DB075242A341994223
:1028F00000D1904210BD0000CB0FDB07490010B59E
:10290000490802460A4307D00A0D07240903E401D7
:10291000090B121B002A01DC002010BDC900440F66
:102920000C43C100E018D205801800F003F910BD77
:102930000122D207002800DB101A002900DB511AFF
:10294000814270470122D207002800DB101A0029BB
:1029500000DB511A88427047F0B51FB406460020CC
:1029600082B005464024019100901BE00199224667
:102970000F46304600F030F8049A059B801A9941C2
:1029800010D310461946224600F016F8361A8F4129
:102990000197224601200021009F00F00DF8381811
:1029A0004D4100902046641E0028DFDC019B00980A
:1029B0002946324607B0F0BD10B5202A04DB014697
:1029C000203A9140002010BD914020239C1A0346DC
:1029D000E3401943904010BD10B5202A04DB08469F
:1029E000203AD040002110BD0B46D340D0402024D7
:1029F000A21A91400843194610BD10B5202A06DBE3
:102A0000CB170846203A1041C1170B4306E00B468E
:102A10001341D0402024A21A91400843194610BD0A
:102A20000FB400B589B00CA900910B990023CB60BD
:102A3000204B214A06930792042201921F4A0292D8
:102A40001F4A089202466B46002000F0E4F909B0E4
:102A500008BC04B0184770B586B006460020C043D5
:102A60000190002015460C460091029104903246D8
:102A7000694604A8FFF7D4FF034604982118002DE7
:102A800005D0002801D00A4600E022462A6000282E
:102A90000DD0002B02DD0098884208D0081B019061
:102AA000009432466946029404A8FFF7B9FF06B0C5
:102AB00070BD00006D3000008D300000FFFFFF7F13
:102AC0000D2D0000F7B5009C0F4600262578641CEC
:102AD000002D05D000F016F90068405DC007F5D163
:102AE0002B2D02D02D2D18D0641E39462046029A77
:102AF00000F0DEFA002F04D03968A14201D100991C
:102B000039607105022400290BDA4042002803DDF8
:102B100001F0B4FD0460A007FEBD01208002064361
:102B2000E3E70028F8DA01F0A9FD04600048FEBDE3
:102B3000FFFFFF7F002904DA401C490001D1400853
:102B40004000704770B40024050C05D11024000427
:102B500002D1002921D01124050E01D10002083430
:102B6000050F01D10001241D850F01D18000A41C97
:102B7000002801DB4000641C002908D020252E1B02
:102B80000D46F540A14000D001212943084301062C
:102B90001B1B000ADB1D02D5002070BC7047DB0543
:102BA000181880180029F8DA401C4900F5D170BCCB
:102BB00040084000704710B5002B08DA0024401C84
:102BC000614192185B411A4301D14008400010BD99
:102BD000F0B51FB482B005460C0003D0084601F0E2
:102BE00011FD02E001F00EFD20300246009021466A
:102BF0002846FFF7E1FE049B059A04460F4618435A
:102C00001143084314D0184610431BD000984021AC
:102C10000A1A18460599FFF7DFFE05460E46009A88
:102C200005990498FFF7C8FE084305D0012004E089
:102C30002046394607B0F0BD0020C11705430E43BA
:102C40002C43374300990E986305401A7905E40A2E
:102C500000220C43FD0A0A3002D500200146E9E7B4
:102C60000105101969410C9C0D9D00196941FFF780
:102C7000A2FFDFE770B54B005B0803430BD04B00AE
:102C80005C0D002633466542B341D417AD1AA3410B
:102C900002DB0020014670BD12053018514170BDA5
:102CA0004A0009030123090B1B0519430A4B10B500
:102CB000520D9A4202DA0020014610BD064B343311
:102CC0009A4203DC9A1AFFF787FE10BD034BD21815
:102CD000FFF772FE10BD0000FF030000CDFBFFFFF9
:102CE000064C0125064E05E0E36807CC2B430C3C5F
:102CF00098471034B442F7D3FFF7E6F990A60000E6
:102D0000B0A60000004870478CA6000010B504462D
:102D1000FFF7F8FF0068005DC007C00F10BD00009E
:102D2000FFB5087885B01546FF2805D0491C2D2829
:102D300004D00022002407E000240BE00122F9E780
:102D40000A235C430419491C0878FF28F8D1002A9B
:102D500000D06442002001902A7801462D2A01D03B
:102D60002B2A04D16D1C2D2A0DD0002201920026A1
:102D70002F78FF2F09D00A2200236D1C00F03CFAA7
:102D800038187141F4E70122F0E7089AA21803927B
:102D900002460A430DD00024B24AB14D26460092A5
:102DA00000F076FA049003980291002807DA47426F
:102DB0001AE0002105980A4606C009B0F0BD074692
:102DC00012E0F80707D022462B4630460099FFF75D
:102DD000E7FB0646009122462B4610461946FFF7B0
:102DE000DFFB04460D467F10002FEAD10398009BBD
:102DF000002802990498324602DAFFF739FC01E014
:102E0000FFF7CEFB019A002A02D00122D2075140DF
:102E1000059A03C2D1E7FFB591B0002009900025C3
:102E2000ED432E209E685C681F460190B9696D1CB9
:102E3000129888470090396A88470028F6D1009890
:102E4000401C0AD00D20C0018443002E12DD0098E2
:102E50002B2809D02D280DD103E00020C04315B048
:102E6000F0BD012080020443B9696D1C12988847A7
:102E7000761E009003A9600501D52D2000E02B20CF
:102E80006A461073491C0CA80F9102900AE0B969B8
:102E90006D1C12988847009001204002044313984B
:102EA000761E0560002E02DD00983028EFD00199D3
:102EB0000098884246D18020044308E00998401ECB
:102EC00009900120400204431399681C0860B96905
:102ED0006D1C761E1298884700903028EED031E0A5
:102EE0000199884205D1200603D480200443761E30
:102EF0001EE0009801F00EFD002826D001204002BF
:102F0000044307A90F980331761E88420BD200981C
:102F10000F99303808700F98401C0F90200607D585
:102F20000998401E03E0200602D40998401C09902D
:102F3000A00502D51399681C0860B9696D1C129828
:102F400088470090002ECBDC59E0002E57DD00981A
:102F5000652801D0452852D1A00550D50320000294
:102F60008443B9696D1C761E129888470090002E24
:102F70000CDD2B2804D02D2808D1FF20013004437C
:102F8000B9696D1C12988847761E0090E00501D53E
:102F90002D2100E02B21029801700298401C029024
:102FA000019025E00120400204430EA9029801315E
:102FB000761E88420ED20098029930380006000E24
:102FC000087003D10299019881420AD90298401CE5
:102FD000029006E0E00501D5234801E02248404286
:102FE0000990B9696D1C1298884700901398056084
:102FF000002E04DD009801F08DFC0028D2D1F96983
:10300000129888470F99FF200870029903AA087048
:1030100000200A900B900CA90AA8099BFFF780FEDC
:10302000A00502D40120C04319E72420044209D09E
:10303000E00713D138680B9A0A99031D3B600068BA
:1030400006C00BE00B990A98FFF756FC0146E00713
:1030500004D13868021D3A60006801602846FEE627
:10306000000024400000F03FF1D8FFFF4268002A32
:1030700008D001680B78491C002B03D0521E06C0F3
:10308000184670470121C160881E70474268002AB7
:103090000BD0C3680168002B07D183688B4204D032
:1030A000491E521C06C0002070470020C0437047D4
:1030B000F7B582B0029C00272078641C1546019762
:1030C000302802D0002D15D015E020780127641C8F
:1030D000782804D0582802D0002D09D00BE0002D0C
:1030E00001D0102D07D1002710252078641C02E0A4
:1030F000082500E00A250026009610E00099012727
:1031000069430818020C294680B2714300908E185A
:103110003804864201D3012001902078641C29469E
:1031200000F0A7F80028E9DA0398002805D0002F5E
:1031300001D0641E00E0029C04600198002806D0C3
:1031400001F09CFA02210160C81E05B0F0BD009993
:1031500030040843F9E7FEB500231A461B1A8A41DA
:1031600003DB0020014603B0F0BD4A000D0301213E
:103170002D0B0905520D0D43D10702D100186D41E9
:10318000521E5110FF31FF310131002704463E46E7
:103190003846009701910246012100200905FFF7FA
:1031A0001BFCC3197141F818324684468E464A41C9
:1031B00061462846611A904104D36046241A95411D
:1031C00076461F46241900986D41401C0090342813
:1031D000E1DDF91930467041091BA84103D20022F4
:1031E000D243134601E00022134601980105381C22
:1031F0007141FFF7E0FCB6E7F0B51FB486B00020E0
:103200000090019002900698069980B20490079869
:10321000090C02040014114307900027089D099827
:1032200006913E463C4603900398A9B20204000C66
:10323000039004982D0C1543484300212246FFF7C4
:10324000BBFBC719714110340E46402CECDB3846ED
:10325000029AFFF7B1FB009A019B80180090594138
:1032600002980191103002904028CCDB00980BB0FE
:10327000F0BD3A2800D23038202302469A43412A32
:1032800001D310463738884201D30020C04370472D
:103290000EB5054A02920022009213460192FFF7F2
:1032A00097FC03B000BD00003304000070B58C181B
:1032B0000578401C6B075B0F01D10378401C2A1175
:1032C00006D10278401C03E006780E70401C491CB1
:1032D0005B1EF9D12B0705D40023521E0DD40B70B1
:1032E000491CFAE70378401CCB1A921C03E01D78B6
:1032F0000D70491C5B1C521EF9D5A142D8D3002089
:1033000070BD0000C10F8900064A89188968C3068C
:10331000DB0E01229A401143C20F9200014BD218DA
:103320009160704700020050F3B583B00C460398DB
:10333000002809D13D48006A0121C90488433B495E
:1033400008623B48029008E03848006A0121C9043D
:10335000084336490862374802903748844204D807
:103360004010844201D9002722E03448844205D825
:103370004010844202D90127640019E03048844299
:1033800005D84010844202D30327A40010E003981C
:10339000002803D12B482549086202E02A48234926
:1033A0000862042000F0D6F900F0E2F805B0F0BDA4
:1033B00026492046FEF7BCFE064624490298FEF741
:1033C000B7FE05460EE0E807C00F002807D1F0075A
:1033D000C00F002803D1022D01D0022E00D102E03F
:1033E0006D087608EFE700BFB803A91E490208433D
:1033F000B11E084301900D48006A010C09040198B0
:1034000001430A480162006A05210904884307490B
:103410000862042000F09EF97A1C6A431146029A61
:1034200072431046FEF784FEC0E700000002005021
:10343000001BB7000080510100C2EB0B00E1F50555
:1034400080F0FA022EC200006FD6000040420F004A
:10345000024909680143014A1160704700020050A7
:1034600010B500F005FD0148006810BD0000002007
:10347000FEB5002002901AA0006800901948046A66
:1034800000132040002801D00020FEBD0120C00410
:103490002040002801D0144D00E0144D01204004CC
:1034A0002040002801D02846EFE703208003204079
:1034B000800B69460A5C0192E005C00D861C1F2046
:1034C00040022040400A871C019A7A431146AA080C
:1034D00072431046FEF72CFE800002900298D4E75B
:1034E000010202040002005000805101001BB700DD
:1034F000FEB5002002901AA0006800901948046AE6
:1035000000132040002801D00020FEBD0120C0048F
:103510002040002801D0144D00E0144D012040044B
:103520002040002801D02846EFE7032080032040F8
:10353000800B69460A5C0192E005C00D861C1F20C5
:1035400040022040400A871C019A7A431146AA088B
:1035500072431046FEF7ECFD800002900298D4E71B
:10356000010202040002005000805101001BB7005C
:10357000FEB5002002901AA0006800901948046A65
:1035800000132040002801D00020FEBD0120C0040F
:103590002040002801D0144D00E0144D01204004CB
:1035A0002040002801D02846EFE703208003204078
:1035B000800B69460A5C0192E005C00D861C1F2045
:1035C00040022040400A871C019A7A431146AA080B
:1035D00072431046FEF7ACFD800002900298D4E7DB
:1035E000010202040002005000805101001BB700DC
:1035F000FEB5002002901AA0006800901948046AE5
:1036000000132040002801D00020FEBD0120C0048E
:103610002040002801D0144D00E0144D012040044A
:103620002040002801D02846EFE7032080032040F7
:10363000800B69460A5C0192E005C00D861C1F20C4
:1036400040022040400A871C019A7A431146AA088A
:1036500072431046FEF76CFD800002900298D4E79A
:10366000010202040002005000805101001BB7005B
:1036700010B504461048844201D9044603E00F48BF
:10368000844200D204460E480068C007C00F0028DC
:1036900005D021460020FFF747FE044605E02146FD
:1036A0000120C004FFF740FE04460021022000F084
:1036B00009F8204610BD000080F0FA0240787D0134
:1036C0000002005070B504460D4608480069C00865
:1036D000C0002043054908610846806900090001CF
:1036E0002843886100F0C4FB70BD00000002005058
:1036F000F0B50B46002100240025C600360F002E31
:103700000FD04600B60FB600114FF4192168C6005D
:10371000370FC601F60EB7400E46BE431E43314674
:1037200021608603360E002E10D00603B60FB600B9
:10373000074F0837F51929688603360EF6438705C3
:10374000FF0EBE400E40164331462960F0BD00001A
:10375000100200500146074A05E01046521E00289C
:1037600001DC002070470448C06808408842F4D15A
:103770000120F7E790D0030000020050F0B585B0BB
:1037800005460F46164600950121684681730021C3
:10379000C17306733246394601A8FEF705FD1020B5
:1037A0000E4908800A460E49684600F003FE0024D0
:1037B0000DE00B48005D0B49086000BF09488069B7
:1037C000012109070840000F0028F7D0641C0348B6
:1037D00000888442EDD305B0F0BD00003C0100201C
:1037E0003E060020000005400348006840084000F5
:1037F000014908607047000000C00050034800689D
:1038000020218843014908607047000000C0005033
:103810000348006810210843014908607047000010
:1038200000C0005003480068202108430149086097
:103830007047000000C00050014622200D4AD060B1
:103840001046416001201061BFF36F8F00BF09482F
:1038500000690028FBD1074800684022104000287A
:1038600005D04020034A10600020C043704700206C
:10387000FCE7000000C00050014622200D4AD06045
:103880001046416001201061BFF36F8F00BF0948EF
:1038900000690028FBD1074800684022104000283A
:1038A00005D04020034A10600020C043704700202C
:1038B000FCE7000000C000500348006801210843F5
:1038C000014908607047000000C000500146002018
:1038D000074AD0601046416001201061BFF36F8F2E
:1038E00000BF034800690028FBD101488068704789
:1038F00000C0005070B505460E46002408E0A10047
:10390000032212058818FFF7E1FFA1006850641C2C
:10391000B442F4D3002070BD70B505460E460020B9
:10392000044625E0A20003231B05D018A200A958D5
:103930002122114BDA601A465060916001221A610F
:10394000BFF36F8F00BF00BF0B4A1269002AFBD183
:1039500000BFA100032212058818FFF7B7FFA100DE
:103960006958884202D00020C04370BD601C0446E4
:10397000B442D7D30020F8E700C000500D48006AD9
:1039800008210840002803D008200A4908620FE0F7
:103990000848006A0749086206484030006A05493D
:1039A0004031086203488030006A02498031086271
:1039B000704700008040005070B5034600200FE0C3
:1039C000012484400C40002C09D01C6846000325CB
:1039D000B540AC4346001546B5402C431C60401C26
:1039E0000828EDD370BD4169012211434161704740
:1039F0000146C8687047000010B50D48FFF7F8FF92
:103A000004460B484069C007C00F012148404840A8
:103A1000002803D00648FFF7E6FF07E005480068E6
:103A2000002803D0204603490968884710BD0000DC
:103A300000000240B4000020C206D20E01219140D5
:103A4000014A11607047000000E100E030B5014616
:103A5000F0240C4022110B071B0F5401024D641976
:103A60009D00601930BD00000042005030B58368F1
:103A70000D24A3430C46144308252C4323438360A1
:103A800030BD0000FFB581B004460A9F00260498AF
:103A9000202801D1002004900498C0000299084316
:103AA000039908432060052000070068000F000705
:103AB000002808D0052000070068000F000701213A
:103AC0000907884249D1FFF7CBFC06460298002837
:103AD0003FD1A060B7420FD1052000070068000F5A
:103AE000000701210907884206D1E06B0121084344
:103AF000E063304605B0F0BDB74205D36068000C06
:103B0000000460607008F5E7002F07D16068000CC2
:103B10000004564940186060700CEBE779000A22F7
:103B200072431046FEF704FB401D0A210090FEF789
:103B3000FFFA451E4D48854200D905466068000CD5
:103B4000000428436060681C41003046FEF7F0FA2C
:103B5000D0E71020A0603046CCE7E06B0121C90718
:103B60000843E0630298002867D1A060404884427F
:103B70000DD14048406910210840102803D1FFF7BB
:103B80006FFC064610E0FFF733FD06460CE03948AF
:103B9000406920210840202803D1FFF761FC064638
:103BA00002E0FFF725FD0646B74203D30020606020
:103BB00030469FE7002F0AD1E06B40004008E063E9
:103BC0006068000C0004FF306060700A92E70A2110
:103BD000714308463946FEF7ABFA401D0A210090B2
:103BE000FEF7A6FA451EFF2D1DD9E06B40004008E8
:103BF000E06379000A2272431046FEF799FA401DED
:103C00000A210090FEF794FA451EFF2D00D9FF25EA
:103C10006068000C000428436060681C4100304666
:103C2000FEF786FA66E76068000C000428436060CF
:103C3000691C3046FEF77CFA5CE71020A0600C4857
:103C4000844207D10B48406910218843103009494C
:103C5000486106E007484069202188432030054933
:103C6000486100206060304644E70000FFFF00002C
:103C7000000003400002005010B50420FFF7E8FBED
:103C80001020FFF767FD0120FFF7E2FB0120FFF79F
:103C900061FD00210846FFF715FD3248FFF7E8FCFB
:103CA0003148FFF72FFB3048401CFFF72BFB2F4814
:103CB000FFF728FB002211462B48FFF719FD0022D1
:103CC00011462948401CFFF713FD002220212848F7
:103CD000FFF70EFD002211462448FFF709FD244896
:103CE000FFF710FB00F0C4F805200007C06B214966
:103CF000084005210907C8630846C06B0321084333
:103D000005210907C8630846006B1B4908400521C7
:103D1000090708630846006B1649C9430843052193
:103D2000090708630846006B0F21090308430521B2
:103D300009070863114840680F21090408430F4927
:103D4000486005200007406B0D4908400521090720
:103D500048630846406B0F21084305210907486363
:103D600010BD000080F0FA02103D80270200802E76
:103D70000D005022FCFCFFFFFCFCFFFC404000500B
:103D8000F0F0FFFF052000078068012108430521AE
:103D9000090788607047010E052212078918896893
:103DA000012282401143020E05231B07D2189160A5
:103DB000010E1A4689188A68012181408A43010E42
:103DC000C9188A607047000006E05920054908605C
:103DD0001620086088200860024800680128F4D195
:103DE000704700000001005006E0592005490860B6
:103DF0001620086088200860024800680128F4D175
:103E0000704700000001005070B504461248007869
:103E1000012807D1234660221048017810A006F03F
:103E200017FA18E0F02006F0A7FA0C48007806F020
:103E3000A3FA152006F0A0FA204606F09DFA0748DE
:103E400000781530001945066D0E284606F094FAE4
:103E5000F72006F091FA70BD5700002054000020B2
:103E600047256420542564204525640D0A00000080
:103E700070B51248006945076D0FFFF7F9FA104950
:103E80000860022D03D0A8000E490C5801E00C4830
:103E900004680A4880690007000F461C3146204626
:103EA000FEF746F9084908600849074800684A10C3
:103EB0008018FEF73DF90649086070BD0002005009
:103EC0000800002098A400000000002040420F00DD
:103ED000040000207047000030B589B0054620225C
:103EE000194901A8FEF760F91848854206D118481B
:103EF0004069072109020840040A1AE013482030EB
:103F0000854206D112484069072109030840040B85
:103F10000FE01048854206D10D4840690721090489
:103F20000840040C05E00A484069072109050840DB
:103F3000040D022C03D10848006809B030BDA00070
:103F400001A90858F9E7000054A50000000001404D
:103F5000000200500000114000000020FEB50546A0
:103F60000F4616462846FFF7B7FF0446002001908B
:103F700000906008B04202D2022001901BE00120B4
:103F80008006844203D307200090E4080EE001205D
:103F90004006844203D303200090A40806E00120D9
:103FA0000006844202D30120009064083146204676
:103FB000FEF7BEF8019000983843286001986860C9
:103FC000009A521C0198504301462046FEF7B0F873
:103FD000FEBD000000BF15488068C007C00F002864
:103FE00023D000BF01201149886000BF104800683D
:103FF000401C0F4908600F480068401C0D490860CC
:10400000142805D301200C490870002009490860D4
:104010000A480068401C09490860322805D301207D
:1040200007490870002005490860704700000140FA
:1040300010000020C0000020B9000020BC000020BB
:10404000B800002010B5044622460121C9060C48DC
:10405000FFF784FF00BF0A480068012149070843B1
:104060000749086000BF00BF08460068890308438D
:104070000349086000BF0820FFF7DEFC10BD000008
:104080000000014010B500F01FFA10BD10B5044645
:104090000348FFF780FE2146024800F02FF810BDCC
:1040A000100000040000054010B500F055FA10BDE6
:1040B00010B504460348FFF76EFE2146024800F0A3
:1040C0001DF810BD110000040000154010B509488E
:1040D000406801210843074948600C20FFF7ACFC09
:1040E0000548406801210843034948600D20FFF757
:1040F000A3FC10BD0000054000001540F0B587B0DE
:1041000004460D46274801460EC9C06803AE0EC6D8
:1041100006900020029024484069032109060840C7
:10412000060E214880690F2109020840070A002075
:1041300020630320E060A0681C490840A060012EB5
:1041400004D1FFF7D5F9B10003AA5050002D26D0B5
:10415000B10003AA5058791CFDF7EAFF690840181E
:1041600029460190FDF7E4FF801E02901049029855
:1041700088420FD9B10003AA5058791CFDF7D8FF27
:10418000E900401829460190FDF7D2FF0009801E82
:10419000606204E00321090702980843606207B0E7
:1041A000F0BD000024A50000000200500FFFF0FF4A
:1041B000FFFF0000FFB587B004460D4617462848AC
:1041C00001460EC9C06802AE0EC6059000200190DF
:1041D00024484069032109060840060E21488069E9
:1041E0000F2109020840000A0690012E04D1FFF7B2
:1041F0007FF9B10002AA5050002D28D0B10002AAC8
:1042000050580699491CFDF793FF69084018294644
:104210000090FDF78DFF801E0190134901988842A0
:1042200010D9B10002AA50580699491CFDF780FF29
:10423000E900401829460090FDF77AFF0009801E2A
:10424000606204E003210907019808436062384670
:104250000A99084310990843E0600BB0F0BD0000D4
:1042600034A5000000020050FFFF000030B50346F7
:104270000C4639491088322804DCAA2B0BD1087966
:10428000AA2808D10020487048800120087000202A
:104290004871108030BD552B22D1087955281FD187
:1042A000087800281CD04888022802DB4888801E35
:1042B00048804D794888205C5530281A48714879E3
:1042C0004D88655DA84205D148881080002008709F
:1042D0000120DFE700204880487110800870D9E78E
:1042E000087800282DD0487800281BD0AA2B03D0AE
:1042F000552B01D0A52B0FD1488823544888401C4A
:104300004880002048704879C0184871552B16D154
:104310000120124D287012E000204870488048713A
:1043200008700CE0A52B02D10120487007E04888F6
:1043300023544888401C48804879C01848714888F0
:10434000108006480078002801D10B7102E000209F
:10435000024D287000209DE7340100203E0100201E
:10436000F8B50546104A11492846FFF77FFF012896
:1043700018D10E4C0E4920684018002804D001289E
:1043800003D00E280CD101E00BE00AE00A23E35E23
:104390000822A25E0621615E207905F0ADF900E0F9
:1043A00000BF00BFF8BD00003A0100200C0600204D
:1043B000FFFF99FFF7B503460024019900251088F7
:1043C00032277F1BB84201DD0020FEBDAA20087005
:1043D000491C0870491C00261DE01878A52805D046
:1043E0001878AA2802D0187855280BD1681CC5B2B5
:1043F000108832277F1BB84201DD0020E5E7A520A9
:104400000870491C18780870491C18780019C4B243
:104410005B1C701C86B21088B042DEDCA52C03D079
:10442000AA2C01D0552C0BD1681CC5B2108832279C
:104430007F1BB84201DD0020C7E7A5200870491C9A
:104440000C70491C55200870491C0870491C0198C3
:10445000081A10800120B8E71CB5002000900190D8
:1044600016480068401C15490860084600680A287C
:1044700000D21CBD0020114908601148808901B29A
:10448000684601800E4908690A21FDF767FE01B2FE
:10449000684641800A48006C01B26846818008493C
:1044A000C8690A21FDF75AFE01B26846C180082298
:1044B00069460448FFF762F900BFDAE740010020CF
:1044C000880500200100660038B5FF2000901D48D7
:1044D000C46980152040002832D02BE019480068BC
:1044E000C0B2009018480021415E802917DA684662
:1044F00000781649164A12888854154800887F2883
:1045000001D1002002E012480088401C10490880B8
:104510000D480088401C00B20B49088006E00020CE
:10452000094908800A4908800A49088068460078D5
:10453000FFF716FF0348C069C007C00F0028CDD1A0
:1045400038BD0000000005404E0000201002002091
:10455000520000205000002008B5FF2100911B49A7
:10456000C8698915014000292ED027E0174909683C
:10457000C9B20091164900228A5E802A17DA69467C
:104580000978144A144B1B88D154134909887F2990
:1045900001D1002102E010490988491C0E4A11800E
:1045A0000B490988491C09B2094A118006E000211B
:1045B000074A1180084A1180084A11800349C969D5
:1045C000C907C90F0029D1D108BD0000000015405E
:1045D00042000020900200204800002046000020F9
:1045E00037B514460846064B6A46214600F09AF94C
:1045F00004466946002000F031FD20463EBD000023
:104600005D5000002021020C01D010211046020A4A
:1046100001D010460839020901D01046091F82084E
:1046200001D01046891E420801D0881E7047081A22
:10463000704730B47446641E2578641CAB4204D3C2
:10464000635D5B00E31830BC18471D46F8E70000C7
:104650004900CA020243100000D004204A0D01D0D4
:1046600001221043044A490D914201D1022108431D
:10467000012800D105207047FF070000004870475F
:104680004C010020F8B504464F1EC8000838211818
:1046900015461E46086849683A4606239A4310D0D4
:1046A0002A463346FDF77CFF3A46D200083AA31863
:1046B0001A687F1E5B68FDF7C1FE06223B469343E6
:1046C000EED1022F23D0042F11D0062F2FD12A464E
:1046D0003346FDF765FFE36AA26AFDF7AFFE2A469F
:1046E0003346FDF75DFF636A226AFDF7A7FE2A469F
:1046F0003346FDF755FFE369A269FDF79FFE2A46A1
:104700003346FDF74DFF63692269FDF797FE2A46A0
:104710003346FDF745FFE368A268FDF78FFE2A46A2
:104720003346FDF73DFF63682268FDF787FEF8BD5D
:10473000002210B5134610460149FDF799FF10BD40
:104740000000F03F10B5FDF779FE10BD002210B556
:10475000134610461146FDF78BFF10BD10B507211B
:10476000024A00200907FEF785FA10BD0103000088
:10477000034A10B500201107FEF77CFA10BD0000B7
:1047800001FDFFFF01480068704700004C01002058
:1047900002E008C8121F08C1002AFAD1704770470A
:1047A000002001E001C1121F002AFBD17047000068
:1047B00001490860704700004C010020F0B51FB4AB
:1047C00084B007980699020D014314D04A484B491A
:1047D0001018484305140F9801280E981CD0281A69
:1047E000401C0024464E4749009401910290002845
:1047F00014DA474227E00F98012443A3012808D088
:10480000002104980F9A84600360C260416009B07F
:10481000F0BD0E98C143F4E74042E2E7074612E0DC
:10482000F80707D02246334601990098FDF7B8FEF5
:10483000019100902246334610461946FDF7B0FE1E
:1048400004460E467F10002FEAD10298019B0028F3
:10485000009A0799069802DAFDF7A2FE01E0FDF73B
:1048600007FF04460E460022284BFEF731F803D816
:104870000020C043014607E00022254B2046314678
:10488000FDF7DCFDFEF70CFA102409E0002C0ADB32
:104890000A220023FEF760F8059B30321A55641E89
:1048A00002460A43F2D11122641C059B121B1C19FB
:1048B0000F9B012B03D0012308430ED10AE00843CC
:1048C00004D011200E9000200F9084E70E98151A46
:1048D0006D1E0BE00E98824202DD00236D1C03E08A
:1048E000824201DA00236D1E002BEED004980F994E
:1048F0008260C16030C08AE701FCFFFF104D0000FC
:10490000000024400000F03F300000000000F043B1
:104910000000E03F30380A2801D201207047002013
:1049200070470000FFB597B00646002518E225281D
:1049300077D100242746FD49049400E00443761C07
:1049400032780120203A90400842F7D130782A2866
:104950000ED00222307801463039092916D8049940
:104960000A235943303940181443761C0490F1E768
:10497000189802C804911890002904DA0120400315
:1049800004434842049002200443761C30782E28C9
:1049900014D1042004437078761C2A2809D1189871
:1049A000761C80C8189009E00A214F43303FC71990
:1049B000761C3078014630390929F5D930786C28D1
:1049C00010D006DC4C281AD068280ED06A2817D1DF
:1049D00004E0742813D07A2812D110E00120400599
:1049E00004430CE00121090501E0032109050C4302
:1049F0007178814203D1012000052418761C761CB1
:104A00003078119066280BD013DC58287DD009DC53
:104A100000287BD04528F6D04628F4D047281AD164
:104A2000A5E118E0632835D0642870D0652812D13C
:104A30009DE170286CD008DC6728F1D069287BD014
:104A40006E280DD06F2806D1BAE073282ED07528B5
:104A500071D0782859D01A9A199990476D1C7EE127
:104A60006002400F022809D003280DD004281898AE
:104A700001680DD00D60001D189070E11898EA17BC
:104A800001680D604A60F6E7189801680D80F2E74A
:104A90000D70F0E718986A4601781172001D1890A1
:104AA0000020507202A80090012005E0189802C86A
:104AB000189000200091C04361070DD5002101E04E
:104AC0000199491C0191B94212DA8142F8DB009A3E
:104AD000515C0029F4D10BE0002101E00199491C4F
:104AE00001918142FADB019A0099895C0029F5D194
:104AF000019904981A9B471A21463846199A00F0E2
:104B000097FA0199401945180BE04FE02CE113E0AA
:104B10004EE0009800990078491C00911A9A199962
:104B200090470198401E0190401CF2D12146384622
:104B30001A9B199A10E137E00A2000210090019198
:104B40006002410F022907D0189A01CA1892C217B1
:104B50009446032908D00AE01898C01DC108C9006E
:104B600005C91891944607E000B2C217944604297B
:104B700002D140B2C1178C4600226146944506DA44
:104B80000A460021404291418C462D2102E0210538
:104B900004D52B216A461173012103E0E10701D0FE
:104BA0002021F7E7029155E00A200AE0102008E0F2
:104BB000102000900021042004430191082703E005
:104BC00008200021019100906002410F022907D0C6
:104BD000189A01CA189200229446032908D008E0C6
:104BE0001898C01DC108C90005C91891944603E072
:104BF00080B2042900D1C0B200210291210729D539
:104C00001199702906D0009A1021019B4A401A433D
:104C100005D00EE040216A461173012108E061468B
:104C2000014306D030216A46117311995173022154
:104C30000291009A0821019B4A401A430AD1614619
:104C4000014301D1610705D530216A461173012165
:104C50007F1E02911199582904D035A10E910DA9FA
:104C60000D910DE037A1F9E76146019B009AFDF730
:104C700073FE0E9B8C469B5C0D9A521E0D92137018
:104C800061460143F0D10D9805A9081A2030019022
:104C9000600703D501200004844300E00127019848
:104CA000874201DD381A00E0002001990090411888
:104CB000029809180498401A0490E00306D421468B
:104CC0001A9B199A049800F0B3F94519002706E0D9
:104CD00003A81A9AC05D199990476D1C7F1C029811
:104CE0008742F5DBE0030CD521461A9B199A0498FC
:104CF00000F09EF9451904E01A9A3020199990475E
:104D00006D1C0099481E00900029F5DC08E00D9804
:104D10000D990078491C0D911A9A199990476D1CAC
:104D20000199481E01900029F1DC63E10928010086
:104D30003031323334353637383961626364656611
:104D400000000000303132333435363738394142D3
:104D5000434445460000000000F05AF94519761C0E
:104D60003078002800D0E2E528461BB0F0BD60078F
:104D700000D406271898C01DC108C90048680A68F1
:104D80000831C30FDB071891190001D09CA108E07E
:104D9000210501D59BA104E0E10701D09AA100E023
:104DA0009AA1430011985B08109165280CD006DC8D
:104DB000452809D046281DD0472841D141E0662822
:104DC00018D067283CD13CE00021112F01DB1120D5
:104DD00000E0781C0191009008A911A8FFF7EEFCF3
:104DE000139905910021119A15927F1C1298019731
:104DF000009150E00120C00703900120019008A914
:104E0000009711A8FFF7DAFC139A14990592002273
:104E1000119B009212981593059A0192002901D0D6
:104E2000104602E0791C40180190381A01D501980B
:104E300004E04042401E0090781C0190C01B02908C
:104E400043E0012F00DA01270021112F01DD11209D
:104E500000E038460191009008A911A8FFF7AEFCC8
:104E600013990591119A00211298159200910197BA
:104E700021070CD40599B94201DB019900E00191A9
:104E8000012904DD159A491E515C302906D0B8422B
:104E900001DA011D05DA0121029115E00199491E8F
:104EA000EDE7002805DC0099411800910199091AE5
:104EB00003E0019A411C914200DD01910099401AE2
:104EC000401C02900120C0070390200706D40299DD
:104ED0000198814202DB0020C04302900020694615
:104EE000C87707AF012103980337C907884224D048
:104EF000022011902B201290039800280CDA4042D7
:104F000003902D20129007E00A210398FDF710F975
:104F100030317F1E039039701199481E119000297D
:104F2000F2DC03980028EFD1791E129808703078CF
:104F3000202108404530BF1E387006A8C01BC01D88
:104F4000039010980078002800D0012001994118A2
:104F50000298C0170918039809180498401A401EAF
:104F60000490E00306D421461A9B199A049800F095
:104F70005FF8451910980078002803D01A9A1999FB
:104F800090476D1CE00324D521461A9B199A04987A
:104F900000F04EF845191CE00098002807DB009946
:104FA0000598884203DD1598405C199901E019992C
:104FB00030201A9A904700986D1C401C009002986F
:104FC000401E0290002804D11A9A2E201999904769
:104FD0006D1C0199481E01900029DDDC05E0387840
:104FE0001A9A7F1C199990476D1C0399481E0390CB
:104FF0000029F4DC21461A9B199A0498ACE60000BB
:105000002D0000002B000000200000000000000028
:10501000F8B5044600251E461746880404D405E06A
:1050200039462020B0476D1C641EF9D52846F8BDCE
:10503000FFB50446002581B01E46C80301D53027C0
:1050400000E02027880404D505E038460399B047DE
:105050006D1C641EF9D5284605B0F0BD0A68531CC6
:105060000B6010707047000000B50246104601F05A
:105070000BF9002801D1401E00BD474840690C21B2
:1050800088434549486108468069886108468068C8
:10509000C90408434049886001204049086210461D
:1050A00010380300FFF7C5FA06045414243444549E
:1050B00005200007406B01210843052109074863CB
:1050C0003648406A000A0002401C3449486240E009
:1050D00005200007406B04210843052109074863A8
:1050E0002E48406A000A0002001D2C49486230E048
:1050F00005200007406B0821084305210907486384
:105100002648406A000A000208302449486220E02C
:1051100005200007406B102108430521090748635B
:105120001E48406A000A000210301C49486210E024
:1051300005200007406B202108430521090748632B
:105140001648406A000A000220301449486200E014
:1051500000BF00BF0120114908630846006A012111
:10516000C90208430D49086200BF0C48006BC00724
:10517000C00F0028F9D00948006A0121C9028843FC
:105180000649086201200863104610388000401864
:1051900000680005000D6FE70002005000000E409F
:1051A00010B504461C488078401C1C490870F0204B
:1051B00005F0E2F81948007805F0DEF8162005F051
:1051C000DBF81748007805F0D7F814480078163057
:1051D00013490978401843065B0E184605F0CCF8D1
:1051E000F72005F0C9F8F02005F0F2F8FF2005F0EF
:1051F000EFF8162005F0ECF80848007805F0E8F81C
:1052000006480078153043065B0E184605F0E0F8B6
:10521000F72005F0DDF810BD100300205500002038
:10522000560000201CB50446274881780191684645
:1052300000790F304106490E2348C078814203D0DF
:105240001320FEF7E1FD1CBD68460079401C1F4994
:105250000870F02005F090F81C48007805F08CF8F4
:10526000102005F089F81A48007805F085F81748ED
:10527000007810301649097840184106490E00910F
:105280006846007805F078F8F72005F075F8F0200A
:1052900005F09EF8FF2005F09BF8102005F098F827
:1052A0000A48007805F094F8084800780F30410665
:1052B000490E00916846007805F08AF8F72005F05D
:1052C00087F800BFBFE70000100300205400002053
:1052D0005600002030B583B00446FFF753FA054668
:1052E000002000900246019021466846FDF7B3FB7E
:1052F0002846FFF75DFA0199009803B030BD000021
:1053000010B50023002100220C480088401E0C4CE0
:10531000235C00BF05E00A48805C4018C1B2501C05
:10532000C2B206480088401E9042F4DC4906490E8D
:105330008B4201D1012010BD0020FCE7400000207D
:1053400010030020F1B584B0264908690A21FCF752
:1053500005FF00B20290244F03AA24A10498FCF791
:1053600047FF044619E003AA20A10020FCF740FFF4
:1053700004462078412805D1601CFCF770FF00B27C
:1053800002900AE02078532807D1601CFFF7A2FFA3
:1053900001910090FDF7B0FA0746002CE3D1029886
:1053A000FDF7F0F905460E4611493846FDF7C0FAFB
:1053B00001D20F4807E00C493846FDF7C3FA01D285
:1053C000094800E03846074628463146FDF72AFAE4
:1053D0003946019004F040F90F20FEF715FD05B0A5
:1053E000F0BD0000880500200000484220000000B9
:1053F000000048C2F1B584B0254908690A21FCF7CC
:10540000ADFE0290234F03AA23A10498FCF7F0FEFF
:10541000044618E003AA20A10020FCF7E9FE044698
:105420002078412804D1601CFCF726FF02900AE096
:105430002078532807D1601CFFF74CFF01910090A2
:10544000FDF75AFA0746002CE4D10298FDF79AF9C5
:1054500005460E4611493846FDF76AFA01D20F4853
:1054600007E00C493846FDF76DFA01D2094800E023
:105470003846074628463146FDF7D4F939460190AB
:1054800004F0EAF80F20FEF7BFFC05B0F0BD000005
:10549000880500200000484220000000000048C2AB
:1054A000FEB507461D4E02AA1DA13846FCF7A0FE18
:1054B000044618E002AA1AA10020FCF799FE04464F
:1054C0002078502804D1601CFCF7C9FE05B20AE020
:1054D0002078532807D1601CFFF7FCFE0191009053
:1054E000FDF70AFA0646002CE4D10E493046FDF7D6
:1054F0001FFA01D20B4807E008493046FDF722FAAF
:1055000001D2064800E0304606463146284604F0FF
:10551000A3F80F20FEF778FCFEBD00000000484213
:1055200020000000000048C2F8B506466A4613A1F4
:105530003046FCF75DFE0446002C05D06A460FA1FC
:105540000020FCF755FE04462078442803D1601C57
:10555000FCF785FE45B2681C0949087009480278C5
:105560000846017808A004F073FE05480378FF227E
:1055700009A10D4804F07FFEF8BD000020000000E6
:105580005400002056000020472564204D31302073
:105590005425640D0A000000472564204D31302059
:1055A0004425640D0A00000000001540F1B582B0EA
:1055B000174F01AA17A10298FCF71AFE044612E041
:1055C00001AA14A10020FCF713FE0446207843280A
:1055D00009D02078532806D1601CFFF77BFE0546D2
:1055E000FDF78AF90746002CEAD109493846FDF74C
:1055F000A9F904D308493846FDF79AF900D2044FB7
:105600003946002004F028F80F20FEF7FDFBFEBD10
:105610000000484220000000000048C2F0B587B0FA
:1056200030490869FDF7AEF8064600222E4BFDF71B
:105630001FF8044600222D4BFCF7B2FF00222C4B32
:1056400003910290FDF714F800221346059104908F
:10565000FDF73EF91ED823490869FDF793F8064681
:105660000022214BFDF704F8044600221F4BFCF7F3
:1056700097FF00221E4B01910090FCF7F9FF0022DA
:105680001C4B03910290FCF7D9FE05910490FDF7A5
:10569000C9F81DE013490869FDF774F804460022B3
:1056A000114BFCF7E5FF0022104B01910090FCF735
:1056B00077FF064600220E4BFCF7DAFF00220D4B67
:1056C00003910290FCF75EFF05910490FDF7AAF8A4
:1056D000024606900848017808A004F0B9FD07B01A
:1056E000F0BD0000880500200000244000807640C6
:1056F0000000B0400000E03F540000204725642037
:105700004D33362041256C640D0A000010B5044667
:10571000034882680348017803A004F099FD10BD96
:105720008805002054000020472564204D3820497A
:10573000252E32660D0A0000F8B509490869FDF703
:1057400021F804460022074BFCF792FF064632463A
:105750000B460548017805A004F07AFDF8BD00006D
:1057600088050020000024405400002047256420C4
:105770004D35205025640D0A0000000010B5044688
:105780000348C2680348017803A004F061FD10BD1E
:105790008805002054000020472564204D36205302
:1057A000252E32660D0A000010B504460348026B30
:1057B0000348017803A004F04BFD10BD88050020CC
:1057C00054000020472564204D372054252E326692
:1057D0000D0A000010B504460348426803480178EA
:1057E00003A004F035FD10BD880500205400002002
:1057F000472564204D392056252E32660D0A0000BB
:1058000010B50446034A0448017804A004F020FDC2
:1058100010BD0000580000205400002047256420DF
:105820004D3132205625730D0A000000F1B584B0C9
:10583000264908690A21FCF791FC00B20290244F26
:1058400003AA24A10498FCF7D3FC044619E003AA98
:1058500020A10020FCF7CCFC04462078412805D18B
:10586000601CFCF7FCFC00B202900AE02078532890
:1058700007D1601CFFF72EFD01910090FDF73CF869
:105880000746002CE3D10298FCF77CFF05460E4644
:1058900011493846FDF74CF801D20F4807E00C4992
:1058A0003846FDF74FF801D2094800E03846074670
:1058B00028463146FCF7B6FF3946019003F07EFFDB
:1058C0000F20FEF7A1FA05B0F0BD0000880500200A
:1058D0000000484220000000000048C2F1B584B03A
:1058E000254908690A21FCF739FC0290234F03AAD5
:1058F00023A10498FCF77CFC044618E003AA20A12D
:105900000020FCF775FC04462078412804D1601C77
:10591000FCF7B2FC01900AE02078532807D1601C04
:10592000FFF7D8FC01910090FCF7E6FF0746002C3A
:10593000E4D10298FCF726FF05460E461149384689
:10594000FCF7F6FF01D20F4807E00C493846FCF798
:10595000F9FF01D2094800E038460746284631469B
:10596000FCF760FF3946019003F028FF0F20FEF797
:105970004BFA05B0F0BD0000880500200000484249
:1059800020000000000048C2FEB507461D4E02AAD6
:105990001DA13846FCF72CFC044618E002AA1AA107
:1059A0000020FCF725FC04462078502804D1601C18
:1059B000FCF755FC05B20AE02078532807D1601C9B
:1059C000FFF788FC01910090FCF796FF0646002C3B
:1059D000E4D10E493046FCF7ABFF01D20B4807E09B
:1059E00008493046FCF7AEFF01D2064800E03046D9
:1059F00006463146284603F0E1FE0F20FEF704FA82
:105A0000FEBD00000000484220000000000048C227
:105A100010B5044600F0D8F90C4908700846007823
:105A2000C007C00F08700846007831300849087177
:105A300003F094FE002007490870602006490870B2
:105A4000034A06A1074804F016FC10BD57000020C9
:105A50005800002054000020560000205625730DE9
:105A60000A00000000000540F8B506466A4614A189
:105A70003046FCF7BDFB0446002C05D06A4610A159
:105A80000020FCF7B5FB04462078432813D1601CA6
:105A9000FCF7E5FBC5B2681EC507ED0F284600F010
:105AA00077FA002803D10F20FEF7AEF906E01120A7
:105AB000FEF7AAF902E01320FEF7A6F9F8BD0000F0
:105AC0002000000010B5044603F0E8FA002803D1D6
:105AD0000F20FEF799F902E01120FEF795F910BDAD
:105AE000F8B5064600256A4613A13046FCF780FB50
:105AF00004460CE06A4610A10020FCF779FB04463E
:105B00002078532803D1601CFCF7A9FB05B2002CB8
:105B1000F0D1FE20C043854200DA04E0FF2D01DD14
:105B2000FF2000E028460546284603F027FE0F2008
:105B3000FEF76AF9F8BD000020000000F1B582B060
:105B400001AA17A10298FCF753FB04461CE001AA26
:105B500013A10020FCF74CFB04462078522804D106
:105B6000601CFCF77CFBC5B20EE02078472804D10E
:105B7000601CFCF774FBC6B206E02078422803D113
:105B8000601CFCF76CFBC7B2002CE0D13A463146F2
:105B9000284603F013FF0F20FEF736F9FEBD000084
:105BA00020000000F8B506466A4610A13046FCF712
:105BB0001FFB0446002C05D06A460CA10020FCF710
:105BC00017FB04462078422803D1601CFCF747FBF2
:105BD000C5B2002D02D003F0C1FD03E0044900204E
:105BE00003F0ECFD0F20FEF70FF9F8BD20000000D8
:105BF0000000A04010B504460120034908700F20A2
:105C0000FEF702F910BD00003F00002010B5044669
:105C10000D488078012813D10B48C07802280FD195
:105C20000948007903280BD107484079042807D197
:105C300005488079052803D10F20FEF7E5F802E03A
:105C40001120FEF7E1F810BD1003002070B50446E6
:105C500000F028FC054600BF00F024FC401BA042D9
:105C6000FAD970BD30B505460C462846FDF7EEFE64
:105C7000046030BD10B504460020C0430D490860E3
:105C8000FEF7A2F8FDF718FE0B4840680421084310
:105C900009494860FDF7C6FD7D204002FDF7CCFDB7
:105CA0007F204002FDF7C8FDFDF7A8FDFEF76AF86A
:105CB00010BD000080E100E0000200500EB50020A1
:105CC00000904049496908460C30042202A904F0BA
:105CD0004BF9002847D13B49496908461430042252
:105CE00001A904F041F900283DD10199029840181A
:105CF000401C002809D13349496908461030042264
:105D0000694604F031F9002859D02E4949690C310F
:105D1000C81DFF30FA30042202A904F025F900283A
:105D20004DD1284949691431C81DFF30FA30042289
:105D300001A904F019F9002841D1019902984018ED
:105D4000401C00280BD11F4949691031C81DFF3084
:105D5000FA300422694604F007F900282FD0002009
:105D600004F0A6FA2BE0174949690C31C81DFF3031
:105D7000FA30042202A904F0F7F800281CD11149D6
:105D800049691431C81DFF30FA30042201A904F01A
:105D9000EBF8002810D1019902984018401C002807
:105DA0000DD1084949691031C81DFF30FA3004226D
:105DB000694604F0D9F802E0002004F079FA00986E
:105DC0000EBD000000C000500EB5002000903C4900
:105DD0004869042202A904F0C7F8002844D13849D0
:105DE000496908460830042201A904F0BDF80028DA
:105DF0003AD1019902984018401C002808D1304936
:105E00004969081D0422694604F0AEF8002855D0FF
:105E10002B494969C81DFF30FA30042202A904F059
:105E2000A3F800284AD1264949690831C81DFF3026
:105E3000FA30042201A904F097F800283ED1019914
:105E400002984018401C00280AD11D494969C81D04
:105E5000FF30FE300422694604F086F800282DD079
:105E6000002004F0C3FA29E015494969C81DFF3034
:105E7000FA30042202A904F077F800281BD1104957
:105E800049690831C81DFF30FA30042201A904F025
:105E90006BF800280FD1019902984018401C002887
:105EA0000CD107494969C81DFF30FE3004226946FC
:105EB00004F05AF802E0002004F098FA00980EBDB1
:105EC00000C000503EB504460025002000902F4938
:105ED000496908460C30042202A904F045F800285C
:105EE0001ED12A49496908461430042201A904F048
:105EF0003BF8002814D1254949690846103004228E
:105F0000694604F031F800280AD101990298401836
:105F1000401C002804D10098A04201D128463EBD73
:105F20001A4949690C31C81DFF30FA30042202A910
:105F300004F01AF8002822D1144949691431C81D07
:105F4000FF30FA30042201A904F00EF8002816D11F
:105F50000E4949691031C81DFF30FA3004226946E4
:105F600004F002F800280AD1019902984018401C58
:105F7000002804D10098A04201D12846CFE720464E
:105F800004F096F905462846C9E7000000C0005015
:105F90003EB504460025002000902C4948690422A3
:105FA00002A903F0E1FF00281DD1284949690846EC
:105FB0000830042201A903F0D7FF002813D1234998
:105FC0004969081D0422694603F0CEFF00280AD162
:105FD000019902984018401C002804D10098A04262
:105FE00001D128463EBD19494969C81DFF30FA3024
:105FF000042202A903F0B8FF002821D113494969FE
:106000000831C81DFF30FA30042201A903F0ACFFAB
:10601000002815D10D494969C81DFF30FE30042202
:10602000694603F0A1FF00280AD10199029840189F
:10603000401C002804D10098A04201D12846D1E795
:10604000204604F0D3F905462846CBE700C00050AF
:1060500000200EE00B49095C0B4A116000BF0A49A1
:106060008969012212071140090F0029F7D0411C4C
:10607000C8B2064909888842ECDB0021034A118036
:106080007047000010030020000015404000002071
:1060900008B5FF20009034480078012800D108BDE1
:1060A00000F000FA3149086054E03148314909886C
:1060B000405C009030480078002803D168460078A2
:1060C000F02807D02C480078012806D168460078CF
:1060D000472802D1012029490870684600782849DC
:1060E000086000BF26488069012109070840000FA9
:1060F0000028F7D01F4800887F2801D1002002E047
:106100001C480088401C1B4908801E480088401E0F
:1061100000B21C49088018480078002803D168465E
:106120000078F72807D014480078012807D168467E
:1061300000780A2803D100201049087010E000F010
:10614000B1F90A490968401AC82803D900200B4947
:10615000087005E0074800880B4909888842A4D1E7
:1061600000BF00BF9BE700003E0000208800002029
:10617000900100204A000020570000203D00002030
:1061800000000540440000204C00002008B5FF201E
:10619000009034480078012800D108BD00F082F951
:1061A0003149086054E0314831490988405C009029
:1061B00030480078002803D168460078F02807D0DE
:1061C0002C480078012806D168460078472802D17B
:1061D000012029490870684600782849086000BFF6
:1061E00026488069012109070840000F0028F7D0E0
:1061F0001F4800887F2801D1002002E01C48008849
:10620000401C1B4908801E480088401E00B21C49E3
:10621000088018480078002803D168460078F728DD
:1062200007D014480078012807D1684600780A286A
:1062300003D100201049087010E000F033F90A493A
:106240000968401AC82803D900200B49087005E0E6
:10625000074800880B4909888842A4D100BF00BFC5
:106260009BE700003D0000208400002090020020F9
:1062700046000020570000203E000020000005409E
:1062800042000020480000200146102907D01229B2
:1062900005D0132903D0142901D0152901D10120DB
:1062A00070470020FCE7000086B0002004900390B7
:1062B000FDF78AFDFDF7E0FC00BF002060490860A3
:1062C00000BFE1204002FDF7E1FEE1204002FDF7C2
:1062D000EFFE002003460322E121490200905948C5
:1062E000FDF768FF002003460322E12149020090E8
:1062F0005548FDF75FFFFDF7E9FE5448FDF7A2FEA4
:106300000820FCF7FFFF00F0C9FE03F02FFBFFF7AA
:106310005BFD4F49087008460078C007C00F087041
:106320000846007831304B49087102F02BFD02F02D
:1063300071F90020484908704849087060204849B0
:1063400008700A20FFF782FC424A46A13D4803F04C
:1063500092FF73E000F0A6FFFFF718FFFFF798FE2B
:1063600042480078002804D000204049087002F01C
:1063700055FE3F480078002806D000203C490870B0
:1063800000F060FB02F068F9FBF7FCFE0446FCF746
:10639000E7F9039037480399FBF7D4FF05464F21EF
:1063A0000906FCF70CF804460021FCF7CBFA14D8D8
:1063B00030480399FBF7C6FF4F2109060090FBF711
:1063C000FEFF0190FCF770FA064600222A4BFCF70C
:1063D00035F80446FCF726FA14E026480399FBF743
:1063E000B1FF07464F210906FBF7E9FF0446FCF71A
:1063F0005BFA0022204B01910090FCF7C3F80546A0
:10640000FCF710FA0290FCF7ABF903901B480399D4
:10641000FBF73FFF064600F045F819490968451AA1
:106420002846FCF7A8F904463146FCF78BFA05D25A
:1064300000F038F81249086002F05AFA8AE70000C2
:10644000000100500000054000001540102700002A
:106450005700002058000020540000205500002064
:10646000560000205625730D0A000000B9000020D8
:10647000B8000020000020410000E03F0000F04193
:106480000C000020F8B506460C4617461D46321B88
:10649000069B5B1B5A431046391BFBF75FFE4019F6
:1064A000F8BD000010B50A2102480068FBF740FE65
:1064B00010BD00001000002010B50024294800780D
:1064C000002805D005202849086064202749086075
:1064D0002748C06B002803D005202649087010BD4E
:1064E0002348046A214800681F4909684018A042EF
:1064F00007DA1E4800681C49096840181B490860F3
:1065000010E01A48006818490968401AA04207DDDF
:106510001648006814490968401A1449086001E0E7
:10652000124804601248406B404210490968884292
:1065300003DD0F48406B40420AE00D48406B0B49B9
:106540000968884202DA0A48406B01E0074800689F
:10655000064908600846008800B203F081F900BFD0
:10656000BDE70000CC000020E8000020C8000020AB
:10657000880500202A01002010B500242948007851
:10658000002808D000202849C86088612749C860D1
:1065900088612749086027480068002802D12649F9
:1065A000087010BD2549486B22490968002902DDA1
:1065B0002049096802E01F4909684942C20F1218C0
:1065C0005210914203DD03201949086002E00120C6
:1065D00017490860002417480068154909684018E1
:1065E000A04207DA134800681149096840181149A8
:1065F000086010E00F4800680D490968401AA04281
:1066000007DD0C4800680A490968401A0949086012
:1066100001E0084804600748008800B203F020F950
:1066200000BFBEE7CC000020280500204805002060
:10663000E4000020C80000202A0100208805002076
:1066400010B50A48007800280AD000200849C86020
:1066500088610849C86088610749086003F07EF8CE
:106660000548008800B203F0FBF810BDCC00002004
:106670002805002048050020C8000020F0B58FB094
:10668000E7480078002822D0E649C9688802262118
:10669000FBF764FD0B90E44841680B98FBF75EFD47
:1066A000E149C86000208861C82008601420486063
:1066B0000020DE4988610120086002208860D948F6
:1066C0008069DB490860D748C069DA490860D54865
:1066D000C06B002804D00520D74908700FB0F0BD6A
:1066E000D048C069CF490969441ACE48C069D14928
:1066F0000968884209D00120CC49086002208860DE
:10670000C848C069CB4908600BE0002C01DD204679
:1067100000E060420A2804DA0A20C4490860142014
:1067200088601320C043844200DA04E0142C01DDA9
:10673000142000E020460446BC4881684069201AC5
:106740004143BA48006860430818B8498861084660
:106750008069B449496B4942884203DAB148406BC9
:1067600040420AE0B1488069AE49496B884202DD87
:10677000AC48406B01E0AD488069AC49886108468F
:106780004461A8488069002802DDA648806902E0CB
:10679000A448806940420E90A5480068002802DDA8
:1067A000A348006802E0A248006840428100401807
:1067B0000A300D90A1480C909A48C069994909691E
:1067C000441A002C03DD0A2C01DA00240CE00A2C08
:1067D00001DB0A3C08E0002C05DC0920C0438442B0
:1067E00001DB002400E00A34002C01DD204600E03B
:1067F00060420746002F01D1002555E00D988742E1
:1068000029DA0D99C81BFBF7BDFF002201239B0766
:106810000191009000F074FE059104900C98FCF733
:1068200043F803910290059B049AFBF7B9FE099186
:1068300008900E98FBF7A6FF07910690099B089A0F
:10684000FBF7A0FE0B910A90FBF7ECFF0546012D2C
:106850002ADA012528E073488069002802DD7148A2
:10686000806902E06F488069404205466D49896948
:10687000002902DD6B49896902E06A498969494258
:106880008A008A186749C968002902DD6549C96814
:1068900002E06449C96849428B00C91850180A21AE
:1068A000FBF75CFC62490860002D01DA002017E06C
:1068B0005C488069002802DD5A48806902E0594836
:1068C00080694042A8420ADA56488069002802DD01
:1068D0005448806904E053488069404200E02846FB
:1068E0000546002C06DD002D01DD284600E068424B
:1068F000054605E0002D01DD284600E068424542DE
:106900004848C0682E1A1320C043864200DA04E0CB
:10691000142E01DD142000E0304606464248C068CF
:1069200080194149C8600A4651683E4A526B0A23A1
:106930005A431046FBF712FC40423B49C968884263
:106940000ADD394A5168374A526B0A235A431046C6
:10695000FBF704FC404218E0334A5168314A526B5D
:106960000A235A431046FBF7F9FB2F49C9688842AE
:1069700009DA2D4A51682B4A526B0A235A431046B2
:10698000FBF7ECFB01E02848C0682749C86049686C
:10699000254AD2685143244A1268724388180A2152
:1069A000FBF7DCFB20498861084680691D49496B7B
:1069B0004942884203DA1B48406B40420AE01A48C9
:1069C00080691849496B884202DD1648406B01E036
:1069D000154880691449886114488069896940189C
:1069E000174908600F48406B40420968884203DD40
:1069F0000C48406B40420AE00A48406B1049096865
:106A0000884202DA0748406B01E00D4800680C49F3
:106A100008600846008800B202F022FF00BF5DE671
:106A2000CC00002088050020280500204805002013
:106A3000D4000020D80000202A0100200AD7233CDF
:106A4000C800002010B51D480078002800D110BDF6
:106A500000201B4908701B4800781B4909788842B0
:106A600002D00120164908701748007815490870AF
:106A7000154800780300FDF7DCFD07050B0E081133
:106A800014171A00FFF7DCFD14E000F01FF811E006
:106A900000F07CF80EE0FFF7F1FD0BE000F01AF9D2
:106AA00008E0FFF769FD05E0FFF706FD02E0FFF7EC
:106AB000C7FD00BF00BF00BFC9E700008805002078
:106AC000CC000020EC0000202A01002010B500249A
:106AD00029480078002805D00A20284908600020AD
:106AE000274908602748C06B002803D005202649A5
:106AF000087010BD2348046A214800681F490968CE
:106B00004018A04207DA1E4800681C49096840186E
:106B10001B49086010E01A48006818490968401AC3
:106B2000A04207DD1648006814490968401A144954
:106B3000086001E0124804601248406B404210496E
:106B40000968884203DD0F48406B40420AE00D4867
:106B5000406B0B490968884202DA0A48406B01E041
:106B600007480068064908600846008800B202F03D
:106B700077FE00BFBDE70000CC000020D000002061
:106B8000C8000020880500202A01002070B54C486C
:106B90000078002813D04B49C96888022621FBF7EA
:106BA000DDFA0546484841682846FBF7D7FA4649CA
:106BB000C86000208861C8200860142048604148EF
:106BC000C06B002803D005204049087070BD3D48C7
:106BD00080693C49C968441A1320C043844200DAE2
:106BE00004E0142C01DD142000E020460446364861
:106BF000C06800193449C8600A465168314A526B6E
:106C00000A235A431046FBF7A9FA40422E49C968A5
:106C100088420ADD2C4A51682A4A526B0A235A4399
:106C20001046FBF79BFA404218E0274A5168254A74
:106C3000526B0A235A431046FBF790FA2249C9685F
:106C4000884209DA204A51681E4A526B0A235A4385
:106C50001046FBF783FA01E01B48C0681A49C86078
:106C60004A68C9684A4318490968614350180A21AB
:106C7000FBF774FA14498861084680691149496B29
:106C80004942884203DA0F48406B40420AE00E480E
:106C900080690C49496B884202DD0A48406B01E07B
:106CA0000948806908498861084680690849086080
:106CB0000846008800B202F0D3FD00BF86E700005E
:106CC000CC00002088050020280500202A01002093
:106CD000C8000020F0B58FB0E7480078002822D027
:106CE000E649C96888022621FBF738FA0B90E44888
:106CF00041680B98FBF732FAE149C86000208861CF
:106D0000C8200860142048600020DE498861012006
:106D1000086002208860D9488069DB490860D7484C
:106D2000C069DA490860D548C06B002804D0052046
:106D3000D74908700FB0F0BDD048C069CF49096984
:106D4000441ACE48C069D1490968884209D0012057
:106D5000CC49086002208860C848C069CB490860F7
:106D60000BE0002C01DD204600E060420A2804DA36
:106D70000A20C4490860142088601320C04384425C
:106D800000DA04E0142C01DD142000E02046044663
:106D9000BC4881684069201A4143BA480068604392
:106DA0000818B849886108468069B449496B494266
:106DB000884203DAB148406B40420AE0B14880693A
:106DC000AE49496B884202DDAC48406B01E0AD48FA
:106DD0008069AC49886108464461A84880690028F8
:106DE00002DDA648806902E0A448806940420E9016
:106DF000A5480068002802DDA348006802E0A24818
:106E000000684042810040180A300D90A1480C9063
:106E10009A48C06999490969441A002C03DD0A2C73
:106E200001DA00240CE00A2C01DB0A3C08E0002C0B
:106E300005DC0920C043844201DB002400E00A3461
:106E4000002C01DD204600E060420746002F01D102
:106E5000002555E00D98874229DA0D99C81BFBF7EC
:106E600091FC002201239B070191009000F048FB58
:106E7000059104900C98FBF717FD03910290059B78
:106E8000049AFBF78DFB099108900E98FBF77AFCAA
:106E900007910690099B089AFBF774FB0B910A90E7
:106EA000FBF7C0FC0546012D2ADA012528E07348CE
:106EB0008069002802DD7148806902E06F488069BE
:106EC000404205466D498969002902DD6B4989699F
:106ED00002E06A49896949428A008A186749C96893
:106EE000002902DD6549C96802E06449C968494270
:106EF0008B00C91850180A21FBF730F96249086065
:106F0000002D01DA002017E05C488069002802DDCE
:106F10005A48806902E0594880694042A8420ADA2A
:106F200056488069002802DD5448806904E05348CF
:106F30008069404200E028460546002C06DD002D11
:106F400001DD284600E06842054605E0002D01DD30
:106F5000284600E0684245424848C0682E1A13207F
:106F6000C043864200DA04E0142E01DD142000E064
:106F7000304606464248C06880194149C8600A4602
:106F800051683E4A526B0A235A431046FBF7E6F813
:106F900040423B49C96888420ADD394A5168374A4C
:106FA000526B0A235A431046FBF7D8F8404218E0C8
:106FB000334A5168314A526B0A235A431046FBF751
:106FC000CDF82F49C968884209DA2D4A51682B4A01
:106FD000526B0A235A431046FBF7C0F801E02848D9
:106FE000C0682749C8604968254AD2685143244A85
:106FF0001268724388180A21FBF7B0F820498861AB
:10700000084680691D49496B4942884203DA1B489A
:10701000406B40420AE01A4880691849496B88422F
:1070200002DD1648406B01E015488069144988610B
:107030001448806989694018174908600F48406BF7
:1070400040420968884203DD0C48406B40420AE038
:107050000A48406B10490968884202DA0748406BC9
:1070600001E00D4800680C4908600846008800B23D
:1070700002F0F6FB00BF5DE6CC0000208805002092
:107080002805002048050020DC000020E00000204A
:107090002A0100206F12033BC800002008B50748F2
:1070A00010230422002100900548FCF7EBFC00228D
:1070B00001210348FCF7DAFC08BD0000808D5B006D
:1070C00000400340114880680C2290430122104385
:1070D0000E4A9060002010621046006801221043A2
:1070E0000A4A106000BF09480068C007C00F0028A6
:1070F000F9D106480169C910806808229043052229
:107100001043024A906008B27047000000400340FC
:10711000F8B5064600273046FBF7A1F8C4B221486F
:107120000078002806D11020FCF76EFE01201D49D2
:107130000870F8BD00201B490870FF2C03D01A48C6
:107140000078844221D119A13046FBF777F8054633
:10715000002D16D016494919481CFBF780F8C7B214
:10716000FF2C09D10A2F07D0472003F031F9FEF791
:107170006FFF0A2003F02CF90D49481900F01AF8A6
:1071800002E01220FCF740FE07E0472003F020F960
:10719000FEF75EFF0A2003F01BF901200149087089
:1071A00000BFC6E73C000020540000204D00000056
:1071B0001003002070B50446601CFBF750F8C5B200
:1071C0002B00FDF736FA266C14181C2024282C30CE
:1071D00034383C406C6C6C6C6C6C44486C6C6C6C03
:1071E0006C6C6C6C6C4C5054585C6064686C2046E1
:1071F000FEF756F954E02046FEF7C6FB50E0204665
:10720000FEF7D0FC4CE02046FEF798FC48E0204614
:10721000FEF792FA44E02046FEF7B0FA40E020463E
:10722000FEF7C2FA3CE02046FEF770FA38E020464E
:10723000FEF7D0FA34E02046FEF776F930E020463B
:10724000FEF7E6FB2CE02046FEF7DAFA28E02046BF
:10725000FEF70AFC24E02046FEF7CCFC20E02046A6
:10726000FEF730FC1CE02046FEF76CF818E02046E4
:10727000FEF7DCFA14E02046FEF7BCF810E02046EA
:10728000FEF72CFB0CE02046FEF72AFC08E0204627
:10729000FEF7C4F904E02046FEF788F900E000BFDD
:1072A00000BF70BD08B5FF200090CCE06A486B4974
:1072B0000988405C00906A48007800287FD16948BE
:1072C000007801281FD168460078F72805D10020F2
:1072D0006449087000F012FEA4E068460078624934
:1072E000624A1288885461480088401C5F490880BF
:1072F000084600885E498842EEDD00205949087042
:107300005A4908808EE068460078F02806D10120AE
:107310005449087000205549088083E0554800789A
:10732000012841D1684600784F49504A1288885454
:107330004E480088401C4D490880084600880528B2
:1073400070D100204B4908704849088046480078B1
:10735000552867D144484078032863D14248C07813
:1073600001285FD14048007900285BD100BFFF2190
:10737000414A1160552111603B498978116004210F
:1073800011600921116000BF05E03C49095C3A4ADF
:107390001160411C08B20928F7DB0D21364A116043
:1073A0000A2111603EE00AE068460078FF2839D1E2
:1073B00001203049087000202C49088032E028481C
:1073C000007801282ED12E480078002820D0684669
:1073D00000780A2806D10020294908702248FFF7C2
:1073E00097FE1FE0684601781F48204A12888154A2
:1073F0001E480088401C1D490880084600881C491A
:1074000088420FDD00201E4908701849088009E0F5
:1074100068460078472805D10120194908700020E6
:10742000124908800D4800887F2801D1002002E021
:107430000A480088401C0949088012480088401EFC
:1074400000B210490880054800880F490988884221
:1074500000D02BE708BD00001002002050000020E3
:1074600057000020380000201003002040000020BA
:10747000FF010000390000200000054058000020F6
:107480003B0000204E00002052000020F8B50446CA
:107490000D46F020204006112107090F01208840E9
:1074A000C7B23300FDF7C5F805040A11181F2600FE
:1074B0002A4639461148FCF77FFA1CE02A4639462D
:1074C0000E484030FCF778FA15E02A4639460B485A
:1074D0008030FCF771FA0EE02A4639460748C03082
:1074E000FCF76AFA07E02A4639460448C030FCF740
:1074F00063FA00E000BF00BFF8BD0000004000508C
:10750000F0B51FB496B084460C460246199D1898F3
:107510000390490068006300490840080193002A6D
:1075200001D0012600E000269E19FE4BF6185B10E4
:107530009E422BD36E00039F0296002F00D001279E
:10754000F719F84EF84BBE199E421FD3039E03460F
:10755000F64F334309D03B469C4201D1002A04D068
:10756000019B002A05D0012604E0002039461BB00B
:10757000F0BD00269E19EE4B9E4207D8039F029E47
:10758000002F00D00127F6199E4207D92B466046EE
:107590002146189AFDF7D6F81BB0F0BD0023002C49
:1075A00029DAE44EB04226DAE34EB04201DB022390
:1075B00021E0DE4EB0421EDBE04E070DBE19142E58
:1075C00009DD3427BF1B039EFE400196BE40039F8A
:1075D000BE420BD00FE0039F002F0CD11427BF1B1E
:1075E0000646FE400196BE40864204D1019BDE075E
:1075F000F60F02239B1B0E46164318D1002D16DAF8
:10760000002C03D0022B01D0012B06D00220FDF765
:10761000CFF8FDF78DF81BB0F0BD0220FDF7C8F8DC
:10762000FDF786F80122D20751401BB0F0BD039E42
:10763000002E61D1BF4EB04220D1C148844201D159
:10764000002A08D0B948814209DB002D10DB1898C8
:1076500029461BB0F0BD0020B4491BB0F0BD002D81
:1076600006DA01222946D207189851401BB0F0BD16
:10767000B4497944086849681BB0F0BDAB4FB842C3
:1076800025D1002D1FDA002904D0B14212D1002AE1
:1076900009D018E0002A72D1A649E20F0020D207D3
:1076A00011431BB0F0BD0020E20F0146D207114389
:1076B0001BB0F0BDB14206DA234600203946FAF786
:1076C000D7FF1BB0F0BD104621461BB0F0BDB14244
:1076D00012DA0126B607B54203D1234610461946F1
:1076E000FEE3994EB54207D1261E05DB1046314612
:1076F00002F016FD1BB0F0BD67007F081646002A99
:1077000040D100290AD08B4A914229D1002C0EDDAC
:10771000002D1CDB002011461BB0F0BD022B16D043
:10772000002C14D0012B12D1002C14DB0FE0002C04
:1077300028DA002D09DB012B03D000207D491BB086
:10774000F0BD002081491BB0F0BD012B03D000200B
:1077500001461BB0F0BD00200121C9071BB0F0BDE0
:10776000724A91420ED1002C01DA002B17D0022B65
:1077700006D00020C043FBF705F81BB0F0BD90E237
:107780000120F8E7E217521C94461A4307D0002262
:107790000892664C62465B1E1A4307D009E001203E
:1077A000FDF706F8FCF7D2FF1BB0F0BD0022644CD9
:1077B0000892674A90427DDD664B674A98421FDD1A
:1077C000914202DC002D05DB4DE05848814217DB79
:1077D000002D48DD0220FCF7EBFFFCF7BFFF05465C
:1077E0000E460022534B21460898FAF7D9FE084668
:1077F00071004908C00FC007014328461BB0F0BD07
:10780000914215DA002D2EDA0220FCF7D1FFFCF7A9
:10781000A5FF05460E460022464B21460898FAF77A
:10782000BFFE72005208C80FC0070243114617E09E
:107830003E4B994223DD002D15DD0220FCF7B8FFF9
:10784000FCF78CFF05460E4600223A4B214608986D
:10785000FAF7A6FE084671004908C00FC0070143A9
:1078600028461BB0F0BD0220FCF7A2FFFCF780FF0A
:1078700049004908E20FD20711431BB0F0BD0022B6
:1078800030463946FAF77EFE012205460E46D243BF
:10789000FBF7F0F9314A324BFAF77AFE2A463346C3
:1078A000FAF77EFE0022284BFAF772FE07462A46B8
:1078B000334600E064E0039110461946FAF770FE83
:1078C0003A46039BFAF76CFE0746032209915207DA
:1078D000244B28463146FAF763FE07910C90224A62
:1078E000204B38460999FAF75BFE074601911F4A7B
:1078F0001F4B28463146FAF753FE3A46019BFAF7EA
:1079000041FE07460B460246099107990C98FAF783
:1079100095FD00250E462846079B0C9AFAF732FE85
:107920003A4627E0FFFF1F00FFFF0F000000F03F77
:107930000000E0FF0000F07F0000404301FCFFFF7B
:107940000000F0BF8A2F00000000E03F0000F0FFC1
:107950000000E0410000F043FFFFEF3F5555555553
:107960005555D53F4715F73FFE822B6544DF5DF83F
:107970000BAE543E099BFAF70BFE02460B4652E152
:10798000012500202D05A94207DA35223046394667
:10799000FBF770F906463420C0430A151218FE485A
:1079A000101803900803FD49000B01430F46FC49E2
:1079B000884201DC002003E0FA49884202DA012013
:1079C000119005E0002011900398401C7F1B03904C
:1079D00011980597C200F4480F92784480184368C4
:1079E0000268394630460D930292FAF7CBFD0791B3
:1079F0000C9030460D9B029A0599FAF71FFD02463E
:107A00000B460020E549FAF733FE09910490079BE5
:107A10000C9AFAF7C5FD129000201090E3480D462D
:107A2000784400680E9001217810490708431199A5
:107A30000D9B890440180121C90447183946029A50
:107A40000E98FAF79FFD3246059BFAF7A1FD024614
:107A50000B4629461098FAF7A3FD064602913B46CD
:107A600029460E9A1098FAF79BFD079B0C9AFAF795
:107A70008FFD3246029BFAF785FD099B049AFAF7BF
:107A80008FFD0591129A0A902B4610461946FAF777
:107A900087FD06460246C6480F460B460621784437
:107AA000FCF7F0FD32463B46009104901046194623
:107AB000FAF776FD009B049AFAF772FD06460F4628
:107AC0002B461946129A1098FAF7B8FC059B0A9AA9
:107AD000FAF766FD32463B46FAF7B0FC109A07917A
